{
  "_format": "hh-sol-artifact-1",
  "contractName": "LLMBroker",
  "sourceName": "contracts/LLMBroker.sol",
  "abi": [
    {
      "anonymous": false,
      "inputs": [
        {
          "indexed": true,
          "internalType": "address",
          "name": "serverAddress",
          "type": "address"
        },
        {
          "indexed": true,
          "internalType": "address",
          "name": "owner",
          "type": "address"
        }
      ],
      "name": "serverCreated",
      "type": "event"
    },
    {
      "inputs": [],
      "name": "createServer",
      "outputs": [
        {
          "internalType": "address",
          "name": "",
          "type": "address"
        }
      ],
      "stateMutability": "nonpayable",
      "type": "function"
    },
    {
      "inputs": [
        {
          "internalType": "uint32",
          "name": "index",
          "type": "uint32"
        }
      ],
      "name": "deleteServer",
      "outputs": [],
      "stateMutability": "nonpayable",
      "type": "function"
    },
    {
      "inputs": [],
      "name": "getAllServers",
      "outputs": [
        {
          "components": [
            {
              "internalType": "string",
              "name": "model",
              "type": "string"
            },
            {
              "internalType": "uint256",
              "name": "inputTokenCost",
              "type": "uint256"
            },
            {
              "internalType": "uint256",
              "name": "outputTokenCost",
              "type": "uint256"
            },
            {
              "internalType": "address",
              "name": "serverContract",
              "type": "address"
            },
            {
              "internalType": "address",
              "name": "owner",
              "type": "address"
            }
          ],
          "internalType": "struct LLMBroker.Server[]",
          "name": "",
          "type": "tuple[]"
        }
      ],
      "stateMutability": "view",
      "type": "function"
    },
    {
      "inputs": [
        {
          "internalType": "uint256",
          "name": "",
          "type": "uint256"
        }
      ],
      "name": "market",
      "outputs": [
        {
          "internalType": "string",
          "name": "model",
          "type": "string"
        },
        {
          "internalType": "uint256",
          "name": "inputTokenCost",
          "type": "uint256"
        },
        {
          "internalType": "uint256",
          "name": "outputTokenCost",
          "type": "uint256"
        },
        {
          "internalType": "address",
          "name": "serverContract",
          "type": "address"
        },
        {
          "internalType": "address",
          "name": "owner",
          "type": "address"
        }
      ],
      "stateMutability": "view",
      "type": "function"
    },
    {
      "inputs": [
        {
          "internalType": "uint32",
          "name": "index",
          "type": "uint32"
        }
      ],
      "name": "updateServerDetails",
      "outputs": [],
      "stateMutability": "nonpayable",
      "type": "function"
    },
    {
      "inputs": [
        {
          "internalType": "uint32",
          "name": "index",
          "type": "uint32"
        },
        {
          "internalType": "string",
          "name": "_model",
          "type": "string"
        },
        {
          "internalType": "uint256",
          "name": "_inputTokenCost",
          "type": "uint256"
        },
        {
          "internalType": "uint256",
          "name": "_outputTokenCost",
          "type": "uint256"
        }
      ],
      "name": "updateServerDetails",
      "outputs": [],
      "stateMutability": "nonpayable",
      "type": "function"
    },
    {
      "inputs": [
        {
          "internalType": "uint32",
          "name": "index",
          "type": "uint32"
        },
        {
          "internalType": "uint256",
          "name": "_inputTokenCost",
          "type": "uint256"
        },
        {
          "internalType": "uint256",
          "name": "_outputTokenCost",
          "type": "uint256"
        }
      ],
      "name": "updateServerTokenCost",
      "outputs": [],
      "stateMutability": "nonpayable",
      "type": "function"
    }
  ],
  "bytecode": "0x6080604052348015600f57600080fd5b50612b9e8061001f6000396000f3fe608060405234801561001057600080fd5b506004361061007d5760003560e01c806377fee1751161005b57806377fee175146100d757806395f3ef79146100ea578063c0bd3b4a1461010a578063eb0431721461011d57600080fd5b806328861d221461008257806351b951d4146100af57806364ce8ecb146100c4575b600080fd5b610095610090366004610ac9565b610132565b6040516100a6959493929190610b32565b60405180910390f35b6100c26100bd366004610b8b565b61020e565b005b6100c26100d2366004610b8b565b610402565b6100c26100e5366004610bad565b610619565b6100f26106db565b6040516001600160a01b0390911681526020016100a6565b6100c2610118366004610be0565b61083b565b610125610939565b6040516100a69190610c77565b6000818154811061014257600080fd5b906000526020600020906005020160009150905080600001805461016590610d1f565b80601f016020809104026020016040519081016040528092919081815260200182805461019190610d1f565b80156101de5780601f106101b3576101008083540402835291602001916101de565b820191906000526020600020905b8154815290600101906020018083116101c157829003601f168201915b505050600184015460028501546003860154600490960154949591949093506001600160a01b0391821692501685565b6000808263ffffffff168154811061022857610228610d59565b600091825260208220600360059092020101546040805163056ce82960e11b815290516001600160a01b0390921693508392630ad9d052926004808401938290030181865afa15801561027f573d6000803e3d6000fd5b505050506040513d6000823e601f3d908101601f191682016040526102a79190810190610d85565b60008363ffffffff16815481106102c0576102c0610d59565b906000526020600020906005020160000190816102dd9190610e9e565b50806001600160a01b0316636b8462be6040518163ffffffff1660e01b8152600401602060405180830381865afa15801561031c573d6000803e3d6000fd5b505050506040513d601f19601f820116820180604052508101906103409190610f57565b60008363ffffffff168154811061035957610359610d59565b906000526020600020906005020160010181905550806001600160a01b0316631cf205bd6040518163ffffffff1660e01b8152600401602060405180830381865afa1580156103ac573d6000803e3d6000fd5b505050506040513d601f19601f820116820180604052508101906103d09190610f57565b60008363ffffffff16815481106103e9576103e9610d59565b9060005260206000209060050201600201819055505050565b8063ffffffff16336001600160a01b03166000828154811061042657610426610d59565b60009182526020909120600360059092020101546001600160a01b0316146104695760405162461bcd60e51b815260040161046090610f70565b60405180910390fd5b6000805461047990600190610fbf565b8154811061048957610489610d59565b906000526020600020906005020160008363ffffffff16815481106104b0576104b0610d59565b60009182526020909120600590910201806104cb8382610fe6565b50600182810154908201556002808301549082015560038083015490820180546001600160a01b03199081166001600160a01b03938416179091556004938401549390920180549092169216919091179055600080548061052e5761052e6110ae565b6000828152602081206000199092019160058302019061054e8282610a66565b50600060018201819055600282018190556003820180546001600160a01b03199081169091556004909201805490921690915591558054819063ffffffff851690811061059d5761059d610d59565b60009182526020909120600590910201600301546040516379bf05b760e11b815263ffffffff851660048201526001600160a01b039091169150819063f37e0b6e90602401600060405180830381600087803b1580156105fc57600080fd5b505af1158015610610573d6000803e3d6000fd5b50505050505050565b8263ffffffff16336001600160a01b03166000828154811061063d5761063d610d59565b60009182526020909120600360059092020101546001600160a01b0316146106775760405162461bcd60e51b815260040161046090610f70565b8260008563ffffffff168154811061069157610691610d59565b9060005260206000209060050201600101819055508160008563ffffffff16815481106106c0576106c0610d59565b90600052602060002090600502016002018190555050505050565b60008033306000805490506040516106f290610aa3565b6001600160a01b03938416815292909116602083015263ffffffff166040820152606001604051809103906000f080158015610732573d6000803e3d6000fd5b506040805160c081018252600060a08201818152825260001960208301819052928201929092526001600160a01b0383166060820152336080820152815460018101835591805280519293509160059091027f290decd9548b62a8d60345a988386fc84ba6bc95484008f6362f93160ef3e563019081906107b39082610e9e565b5060208201516001820155604080830151600283015560608301516003830180546001600160a01b03199081166001600160a01b03938416179091556080909401516004909301805490941692811692909217909255905133918316907f3fb92f03f44256d65d2770a847784e9d99f9a9a9693420aeceda839766efb8b590600090a3919050565b8463ffffffff16336001600160a01b03166000828154811061085f5761085f610d59565b60009182526020909120600360059092020101546001600160a01b0316146108995760405162461bcd60e51b815260040161046090610f70565b848460008863ffffffff16815481106108b4576108b4610d59565b906000526020600020906005020160000191826108d29291906110c4565b508260008763ffffffff16815481106108ed576108ed610d59565b9060005260206000209060050201600101819055508160008763ffffffff168154811061091c5761091c610d59565b906000526020600020906005020160020181905550505050505050565b60606000805480602002602001604051908101604052809291908181526020016000905b82821015610a5d57838290600052602060002090600502016040518060a001604052908160008201805461099090610d1f565b80601f01602080910402602001604051908101604052809291908181526020018280546109bc90610d1f565b8015610a095780601f106109de57610100808354040283529160200191610a09565b820191906000526020600020905b8154815290600101906020018083116109ec57829003601f168201915b50505091835250506001828101546020808401919091526002840154604084015260038401546001600160a01b0390811660608501526004909401549093166080909201919091529183529201910161095d565b50505050905090565b508054610a7290610d1f565b6000825580601f10610a82575050565b601f016020900490600052602060002090810190610aa09190610ab0565b50565b6119ea8061117f83390190565b5b80821115610ac55760008155600101610ab1565b5090565b600060208284031215610adb57600080fd5b5035919050565b60005b83811015610afd578181015183820152602001610ae5565b50506000910152565b60008151808452610b1e816020860160208601610ae2565b601f01601f19169290920160200192915050565b60a081526000610b4560a0830188610b06565b60208301969096525060408101939093526001600160a01b03918216606084015216608090910152919050565b803563ffffffff81168114610b8657600080fd5b919050565b600060208284031215610b9d57600080fd5b610ba682610b72565b9392505050565b600080600060608486031215610bc257600080fd5b610bcb84610b72565b95602085013595506040909401359392505050565b600080600080600060808688031215610bf857600080fd5b610c0186610b72565b9450602086013567ffffffffffffffff811115610c1d57600080fd5b8601601f81018813610c2e57600080fd5b803567ffffffffffffffff811115610c4557600080fd5b886020828401011115610c5757600080fd5b959860209190910197509495604081013595606090910135945092505050565b6000602082016020835280845180835260408501915060408160051b86010192506020860160005b82811015610d1357603f198786030184528151805160a08752610cc560a0880182610b06565b60208381015189820152604080850151908a01526060808501516001600160a01b03908116918b01919091526080948501511693909801929092525094938401939190910190600101610c9f565b50929695505050505050565b600181811c90821680610d3357607f821691505b602082108103610d5357634e487b7160e01b600052602260045260246000fd5b50919050565b634e487b7160e01b600052603260045260246000fd5b634e487b7160e01b600052604160045260246000fd5b600060208284031215610d9757600080fd5b815167ffffffffffffffff811115610dae57600080fd5b8201601f81018413610dbf57600080fd5b805167ffffffffffffffff811115610dd957610dd9610d6f565b604051601f8201601f19908116603f0116810167ffffffffffffffff81118282101715610e0857610e08610d6f565b604052818152828201602001861015610e2057600080fd5b610e31826020830160208601610ae2565b95945050505050565b601f821115610e8457806000526020600020601f840160051c81016020851015610e615750805b601f840160051c820191505b81811015610e815760008155600101610e6d565b50505b505050565b600019600383901b1c191660019190911b1790565b815167ffffffffffffffff811115610eb857610eb8610d6f565b610ecc81610ec68454610d1f565b84610e3a565b6020601f821160018114610efa5760008315610ee85750848201515b610ef28482610e89565b855550610e81565b600084815260208120601f198516915b82811015610f2a5787850151825560209485019460019092019101610f0a565b5084821015610f485786840151600019600387901b60f8161c191681555b50505050600190811b01905550565b600060208284031215610f6957600080fd5b5051919050565b6020808252602f908201527f41207365727665722063616e206f6e6c79206d6f6469667920697473206f776e60408201526e206d61726b6574206c697374696e6760881b606082015260800190565b81810381811115610fe057634e487b7160e01b600052601160045260246000fd5b92915050565b818103610ff1575050565b610ffb8254610d1f565b67ffffffffffffffff81111561101357611013610d6f565b61102181610ec68454610d1f565b6000601f8211600181146110465760008315610ee8575084820154610ef28482610e89565b600085815260209020601f19841690600086815260209020845b838110156110805782860154825560019586019590910190602001611060565b508583101561109e5781850154600019600388901b60f8161c191681555b5050505050600190811b01905550565b634e487b7160e01b600052603160045260246000fd5b67ffffffffffffffff8311156110dc576110dc610d6f565b6110f0836110ea8354610d1f565b83610e3a565b6000601f84116001811461111e576000851561110c5750838201355b6111168682610e89565b845550610e81565b600083815260209020601f19861690835b8281101561114f578685013582556020948501946001909201910161112f565b508682101561116c5760001960f88860031b161c19848701351681555b505060018560011b018355505050505056fe608060405234801561001057600080fd5b506040516119ea3803806119ea83398101604081905261002f91610234565b600080546001600160a01b038481166001600160c01b031990921691909117600160a01b63ffffffff85160217909155600680549185166001600160b01b031990921691909117600560a01b1790556100866100de565b600880546001600160a01b0392909216620100000262010000600160b01b03199092169190911790556040805160208101909152665193148bd554d160c21b81526100d59060099060016101a7565b505050506102ae565b600073ad67fe66660fb8dfe9d6b1b4240d8650e30f60196001600160a01b031663159354a260405160200161012d90602080825260069082015265233a39b7ab1960d11b604082015260600190565b604051602081830303815290604052805190602001206040518263ffffffff1660e01b815260040161016191815260200190565b602060405180830381865afa15801561017e573d6000803e3d6000fd5b505050506040513d601f19601f820116820180604052508101906101a2919061028a565b905090565b8280548282559060005260206000209081019282156101f7579160200282015b828111156101f757825182546001600160a81b03191660589190911c1782556020909201916001909101906101c7565b50610203929150610207565b5090565b5b808211156102035760008155600101610208565b6001600160a01b038116811461023157600080fd5b50565b60008060006060848603121561024957600080fd5b83516102548161021c565b60208501519093506102658161021c565b604085015190925063ffffffff8116811461027f57600080fd5b809150509250925092565b60006020828403121561029c57600080fd5b81516102a78161021c565b9392505050565b61172d806102bd6000396000f3fe6080604052600436106100e85760003560e01c80636b8462be1161008a578063c76171d111610059578063c76171d114610280578063ed97b082146102b9578063f37e0b6e146102d9578063fd26f037146102f957600080fd5b80636b8462be146101fd578063b742783314610212578063c2f8b7e914610232578063c42f9fce1461025257600080fd5b80631e2186ae116100c65780631e2186ae1461016657806331dcd8b71461017d5780633ce2aa991461019d5780634e22410a146101d357600080fd5b80630ad9d052146100ed57806310f7d7d6146101185780631cf205bd14610143575b600080fd5b3480156100f957600080fd5b5061010261030e565b60405161010f9190610a7a565b60405180910390f35b61012b610126366004610ac8565b61039c565b6040516001600160a01b03909116815260200161010f565b34801561014f57600080fd5b50610158610538565b60405190815260200161010f565b34801561017257600080fd5b5061017b61055d565b005b34801561018957600080fd5b5061017b610198366004610af6565b6105f5565b3480156101a957600080fd5b5061012b6101b8366004610b2b565b6007602052600090815260409020546001600160a01b031681565b3480156101df57600080fd5b506004546101ed9060ff1681565b604051901515815260200161010f565b34801561020957600080fd5b506101586106d4565b34801561021e57600080fd5b5061017b61022d366004610b5b565b6106f0565b34801561023e57600080fd5b5061015861024d366004610b2b565b61073c565b34801561025e57600080fd5b5060085461026d9061ffff1681565b60405161ffff909116815260200161010f565b34801561028c57600080fd5b5061012b61029b366004610b2b565b6001600160a01b039081166000908152600760205260409020541690565b3480156102c557600080fd5b5061017b6102d4366004610bc8565b6107bd565b3480156102e557600080fd5b5061017b6102f4366004610c60565b6108ac565b34801561030557600080fd5b5061017b61093e565b6001805461031b90610c86565b80601f016020809104026020016040519081016040528092919081815260200182805461034790610c86565b80156103945780601f1061036957610100808354040283529160200191610394565b820191906000526020600020905b81548152906001019060200180831161037757829003601f168201915b505050505081565b60065460085460009161ffff600160a01b90910481169116111561041d5760405162461bcd60e51b815260206004820152602d60248201527f54686973207365727665722068617320697473206d6178696d756d206e756d6260448201526c6572206f6620636c69656e747360981b60648201526084015b60405180910390fd5b6000346104286106d4565b610430610538565b6006546040516001600160a01b03909116903390889061044f90610a6d565b958652602086019490945260408501929092526001600160a01b03908116606085015216608083015260a082015260c001604051809103906000f08015801561049c573d6000803e3d6000fd5b506040519091506001600160a01b038216903480156108fc02916000818181858888f193505050501580156104d5573d6000803e3d6000fd5b5033600090815260076020526040812080546001600160a01b0319166001600160a01b038416179055600880546001929061051590849061ffff16610cd6565b92506101000a81548161ffff021916908361ffff16021790555080915050919050565b60045460009060ff16156105565761055160035461098e565b905090565b5060035490565b6006546001600160a01b031633146105875760405162461bcd60e51b815260040161041490610cf0565b6000546040516364ce8ecb60e01b8152600160a01b820463ffffffff1660048201526001600160a01b039091169081906364ce8ecb90602401600060405180830381600087803b1580156105da57600080fd5b505af11580156105ee573d6000803e3d6000fd5b5050505050565b6006546001600160a01b0316331461061f5760405162461bcd60e51b815260040161041490610cf0565b600283905560038290556004805460ff19168215151790556000546001600160a01b0381169081906377fee17590600160a01b900463ffffffff166106626106d4565b61066a610538565b6040516001600160e01b031960e086901b16815263ffffffff93909316600484015260248301919091526044820152606401600060405180830381600087803b1580156106b657600080fd5b505af11580156106ca573d6000803e3d6000fd5b5050505050505050565b60045460009060ff16156106e9575060025490565b5060025490565b6006546001600160a01b0316331461071a5760405162461bcd60e51b815260040161041490610cf0565b6006805461ffff909216600160a01b0261ffff60a01b19909216919091179055565b6001600160a01b03808216600090815260076020908152604080832054815163191fc19d60e01b815291519394169263191fc19d926004808401939192918290030181865afa158015610793573d6000803e3d6000fd5b505050506040513d601f19601f820116820180604052508101906107b79190610d3c565b92915050565b6006546001600160a01b031633146107e75760405162461bcd60e51b815260040161041490610cf0565b60016107f4858783610db7565b5060028390556003829055600561080c878983610db7565b506004805460ff19168215151790556000546001600160a01b03811690819063c0bd3b4a90600160a01b900463ffffffff1688886108486106d4565b610850610538565b6040518663ffffffff1660e01b8152600401610870959493929190610e77565b600060405180830381600087803b15801561088a57600080fd5b505af115801561089e573d6000803e3d6000fd5b505050505050505050505050565b6000546001600160a01b031633146109185760405162461bcd60e51b815260206004820152602960248201527f6f6e6c79207468652062726f6b65726167652063616e2063616c6c207468697360448201526810333ab731ba34b7b760b91b6064820152608401610414565b6000805463ffffffff909216600160a01b0263ffffffff60a01b19909216919091179055565b33600090815260076020526040812080546001600160a01b0319169055600880546001929061097290849061ffff16610ec4565b92506101000a81548161ffff021916908361ffff160217905550565b600854604051634c37574560e01b8152600091829182916201000090046001600160a01b031690634c375745906109ca90600990600401610ede565b600060405180830381865afa1580156109e7573d6000803e3d6000fd5b505050506040513d6000823e601f3d908101601f19168201604052610a0f919081019061101e565b509150915081600081518110610a2757610a276110e9565b602002602001015181600081518110610a4257610a426110e9565b6020026020010151600a1860ff1685610a5b91906110ff565b610a659190611116565b949350505050565b6105bf8061113983390190565b602081526000825180602084015260005b81811015610aa85760208186018101516040868401015201610a8b565b506000604082850101526040601f19601f83011684010191505092915050565b600060208284031215610ada57600080fd5b5035919050565b80358015158114610af157600080fd5b919050565b600080600060608486031215610b0b57600080fd5b8335925060208401359150610b2260408501610ae1565b90509250925092565b600060208284031215610b3d57600080fd5b81356001600160a01b0381168114610b5457600080fd5b9392505050565b600060208284031215610b6d57600080fd5b813561ffff81168114610b5457600080fd5b60008083601f840112610b9157600080fd5b50813567ffffffffffffffff811115610ba957600080fd5b602083019150836020828501011115610bc157600080fd5b9250929050565b600080600080600080600060a0888a031215610be357600080fd5b873567ffffffffffffffff811115610bfa57600080fd5b610c068a828b01610b7f565b909850965050602088013567ffffffffffffffff811115610c2657600080fd5b610c328a828b01610b7f565b9096509450506040880135925060608801359150610c5260808901610ae1565b905092959891949750929550565b600060208284031215610c7257600080fd5b813563ffffffff81168114610b5457600080fd5b600181811c90821680610c9a57607f821691505b602082108103610cba57634e487b7160e01b600052602260045260246000fd5b50919050565b634e487b7160e01b600052601160045260246000fd5b61ffff81811683821601908111156107b7576107b7610cc0565b6020808252602c908201527f6f6e6c792074686520736572766572206f776e65722063616e2063616c6c207460408201526b3434b990333ab731ba34b7b760a11b606082015260800190565b600060208284031215610d4e57600080fd5b5051919050565b634e487b7160e01b600052604160045260246000fd5b601f821115610db257806000526020600020601f840160051c81016020851015610d925750805b601f840160051c820191505b818110156105ee5760008155600101610d9e565b505050565b67ffffffffffffffff831115610dcf57610dcf610d55565b610de383610ddd8354610c86565b83610d6b565b6000601f841160018114610e175760008515610dff5750838201355b600019600387901b1c1916600186901b1783556105ee565b600083815260209020601f19861690835b82811015610e485786850135825560209485019460019092019101610e28565b5086821015610e655760001960f88860031b161c19848701351681555b505060018560011b0183555050505050565b63ffffffff8616815260806020820152836080820152838560a0830137600060a08583010152600060a0601f19601f87011683010190508360408301528260608301529695505050505050565b61ffff82811682821603908111156107b7576107b7610cc0565b602080825282548282018190526000848152918220906040840190835b81811015610f2a57835460581b6affffffffffffffffffffff1916835260019384019360209093019201610efb565b509095945050505050565b604051601f8201601f1916810167ffffffffffffffff81118282101715610f5e57610f5e610d55565b604052919050565b600067ffffffffffffffff821115610f8057610f80610d55565b5060051b60200190565b600082601f830112610f9b57600080fd5b8151610fae610fa982610f66565b610f35565b8082825260208201915060208360051b860101925085831115610fd057600080fd5b602085015b83811015610ffc5780518060000b8114610fee57600080fd5b835260209283019201610fd5565b5095945050505050565b805167ffffffffffffffff81168114610af157600080fd5b60008060006060848603121561103357600080fd5b835167ffffffffffffffff81111561104a57600080fd5b8401601f8101861361105b57600080fd5b8051611069610fa982610f66565b8082825260208201915060208360051b85010192508883111561108b57600080fd5b6020840193505b828410156110ad578351825260209384019390910190611092565b80965050505050602084015167ffffffffffffffff8111156110ce57600080fd5b6110da86828701610f8a565b925050610b2260408501611006565b634e487b7160e01b600052603260045260246000fd5b80820281158282048414176107b7576107b7610cc0565b60008261113357634e487b7160e01b600052601260045260246000fd5b50049056fe608060405234801561001057600080fd5b506040516105bf3803806105bf83398101604081905261002f9161009c565b60009590955560019390935560029190915560038054336001600160a01b0319918216179091556004805482166001600160a01b0393841617905560058054909116919092161790556006556100fb565b80516001600160a01b038116811461009757600080fd5b919050565b60008060008060008060c087890312156100b557600080fd5b865160208801516040890151919750955093506100d460608801610080565b92506100e260808801610080565b9150600060a08801519050809150509295509295509295565b6104b58061010a6000396000f3fe608060405234801561001057600080fd5b506004361061007d5760003560e01c8063590e1ae31161005b578063590e1ae3146100b0578063d4300b18146100b8578063da25de3c146100cb578063db420fe3146100d457600080fd5b8063191fc19d146100825780633604d8af1461009e5780633a40f3b2146100a8575b600080fd5b61008b60065481565b6040519081526020015b60405180910390f35b6100a66100ff565b005b6100a6610177565b6100a6610215565b6100a66100c6366004610361565b610278565b61008b60005481565b6003546100e7906001600160a01b031681565b6040516001600160a01b039091168152602001610095565b6005546001600160a01b031633146101325760405162461bcd60e51b815260040161012990610394565b60405180910390fd5b600554600080546040516001600160a01b039093169281156108fc0292818181858888f1935050505015801561016c573d6000803e3d6000fd5b506101756102e6565b565b6005546001600160a01b031633146101a15760405162461bcd60e51b815260040161012990610394565b600554600080546040516001600160a01b039093169281156108fc0292818181858888f193505050501580156101db573d6000803e3d6000fd5b506004546040516001600160a01b03909116904780156108fc02916000818181858888f1935050505015801561016c573d6000803e3d6000fd5b6005546001600160a01b0316331461023f5760405162461bcd60e51b8152600401610129906103da565b6005546040516001600160a01b03909116904780156108fc02916000818181858888f1935050505015801561016c573d6000803e3d6000fd5b6004546001600160a01b031633146102a25760405162461bcd60e51b8152600401610129906103da565b6002546102b59063ffffffff831661043c565b6001546102c89063ffffffff851661043c565b6102d29190610459565b6000546102df919061046c565b6000555050565b6003546040805163fd26f03760e01b815290516001600160a01b0390921691829163fd26f03791600480830192600092919082900301818387803b15801561032d57600080fd5b505af1158015610341573d6000803e3d6000fd5b5050505050565b803563ffffffff8116811461035c57600080fd5b919050565b6000806040838503121561037457600080fd5b61037d83610348565b915061038b60208401610348565b90509250929050565b60208082526026908201527f6f6e6c792074686520636c69656e742063616e2063616c6c20746869732066756040820152653731ba34b7b760d11b606082015260800190565b6020808252602c908201527f6f6e6c792074686520736572766572206f776e65722063616e2063616c6c207460408201526b3434b990333ab731ba34b7b760a11b606082015260800190565b634e487b7160e01b600052601160045260246000fd5b808202811582820484141761045357610453610426565b92915050565b8082018082111561045357610453610426565b818103818111156104535761045361042656fea26469706673582212203a2e90545543f0c4d4be8b2d6a226e82677e14c26ad6875be70ff41baf88d52064736f6c634300081c0033a2646970667358221220ee03db4797fb8f2f63c3ed75666b76dac45e70d740462e5dd5376712a46ddc0764736f6c634300081c0033a264697066735822122002f90d7f695e5e20ce3da380f957c3d820c2679cb9a2737dc27ea96c63895bf864736f6c634300081c0033",
  "linkReferences": {},
  "deployedLinkReferences": {}
}