{
  "_format": "hh-sol-artifact-1",
  "contractName": "LLMAgreement",
  "sourceName": "contracts/LLMAgreement.sol",
  "abi": [
    {
      "inputs": [
        {
          "internalType": "uint256",
          "name": "_initialBalance",
          "type": "uint256"
        },
        {
          "internalType": "uint256",
          "name": "_inputTokenCost",
          "type": "uint256"
        },
        {
          "internalType": "uint256",
          "name": "_outputTokenCost",
          "type": "uint256"
        },
        {
          "internalType": "address payable",
          "name": "_serverOwner",
          "type": "address"
        },
        {
          "internalType": "address payable",
          "name": "_client",
          "type": "address"
        },
        {
          "internalType": "uint256",
          "name": "_clientPubKey",
          "type": "uint256"
        }
      ],
      "stateMutability": "payable",
      "type": "constructor"
    },
    {
      "inputs": [],
      "name": "clientPubKey",
      "outputs": [
        {
          "internalType": "uint256",
          "name": "",
          "type": "uint256"
        }
      ],
      "stateMutability": "view",
      "type": "function"
    },
    {
      "inputs": [
        {
          "internalType": "uint32",
          "name": "numInputTokens",
          "type": "uint32"
        },
        {
          "internalType": "uint32",
          "name": "numOutputTokens",
          "type": "uint32"
        }
      ],
      "name": "notifyResponse",
      "outputs": [],
      "stateMutability": "nonpayable",
      "type": "function"
    },
    {
      "inputs": [],
      "name": "refund",
      "outputs": [],
      "stateMutability": "nonpayable",
      "type": "function"
    },
    {
      "inputs": [],
      "name": "remainingBalance",
      "outputs": [
        {
          "internalType": "uint256",
          "name": "",
          "type": "uint256"
        }
      ],
      "stateMutability": "view",
      "type": "function"
    },
    {
      "inputs": [],
      "name": "satisfied",
      "outputs": [],
      "stateMutability": "nonpayable",
      "type": "function"
    },
    {
      "inputs": [],
      "name": "serverAddress",
      "outputs": [
        {
          "internalType": "address",
          "name": "",
          "type": "address"
        }
      ],
      "stateMutability": "view",
      "type": "function"
    },
    {
      "inputs": [],
      "name": "unsatisfied",
      "outputs": [],
      "stateMutability": "nonpayable",
      "type": "function"
    }
  ],
  "bytecode": "0x60806040526040516105b23803806105b28339810160408190526100229161008f565b60009590955560019390935560029190915560038054336001600160a01b0319918216179091556004805482166001600160a01b0393841617905560058054909116919092161790556006556100ee565b80516001600160a01b038116811461008a57600080fd5b919050565b60008060008060008060c087890312156100a857600080fd5b865160208801516040890151919750955093506100c760608801610073565b92506100d560808801610073565b9150600060a08801519050809150509295509295509295565b6104b5806100fd6000396000f3fe608060405234801561001057600080fd5b506004361061007d5760003560e01c8063590e1ae31161005b578063590e1ae3146100b0578063d4300b18146100b8578063da25de3c146100cb578063db420fe3146100d457600080fd5b8063191fc19d146100825780633604d8af1461009e5780633a40f3b2146100a8575b600080fd5b61008b60065481565b6040519081526020015b60405180910390f35b6100a66100ff565b005b6100a6610177565b6100a6610215565b6100a66100c6366004610361565b610278565b61008b60005481565b6003546100e7906001600160a01b031681565b6040516001600160a01b039091168152602001610095565b6005546001600160a01b031633146101325760405162461bcd60e51b815260040161012990610394565b60405180910390fd5b600554600080546040516001600160a01b039093169281156108fc0292818181858888f1935050505015801561016c573d6000803e3d6000fd5b506101756102e6565b565b6005546001600160a01b031633146101a15760405162461bcd60e51b815260040161012990610394565b600554600080546040516001600160a01b039093169281156108fc0292818181858888f193505050501580156101db573d6000803e3d6000fd5b506004546040516001600160a01b03909116904780156108fc02916000818181858888f1935050505015801561016c573d6000803e3d6000fd5b6005546001600160a01b0316331461023f5760405162461bcd60e51b8152600401610129906103da565b6005546040516001600160a01b03909116904780156108fc02916000818181858888f1935050505015801561016c573d6000803e3d6000fd5b6004546001600160a01b031633146102a25760405162461bcd60e51b8152600401610129906103da565b6002546102b59063ffffffff831661043c565b6001546102c89063ffffffff851661043c565b6102d29190610459565b6000546102df919061046c565b6000555050565b6003546040805163fd26f03760e01b815290516001600160a01b0390921691829163fd26f03791600480830192600092919082900301818387803b15801561032d57600080fd5b505af1158015610341573d6000803e3d6000fd5b5050505050565b803563ffffffff8116811461035c57600080fd5b919050565b6000806040838503121561037457600080fd5b61037d83610348565b915061038b60208401610348565b90509250929050565b60208082526026908201527f6f6e6c792074686520636c69656e742063616e2063616c6c20746869732066756040820152653731ba34b7b760d11b606082015260800190565b6020808252602c908201527f6f6e6c792074686520736572766572206f776e65722063616e2063616c6c207460408201526b3434b990333ab731ba34b7b760a11b606082015260800190565b634e487b7160e01b600052601160045260246000fd5b808202811582820484141761045357610453610426565b92915050565b8082018082111561045357610453610426565b818103818111156104535761045361042656fea2646970667358221220cf6148bc844890837ef54808e4503e8701e29374a042d7fa58157cb20acbd29e64736f6c634300081c0033",
  "linkReferences": {},
  "deployedLinkReferences": {}
}