{
  "_format": "hh-sol-artifact-1",
  "contractName": "LLMAgreement",
  "sourceName": "contracts/LLMAgreement.sol",
  "abi": [
    {
      "inputs": [
        {
          "internalType": "uint256",
          "name": "_initialBalance",
          "type": "uint256"
        },
        {
          "internalType": "uint256",
          "name": "_inputTokenCost",
          "type": "uint256"
        },
        {
          "internalType": "uint256",
          "name": "_outputTokenCost",
          "type": "uint256"
        },
        {
          "internalType": "address payable",
          "name": "_serverOwner",
          "type": "address"
        },
        {
          "internalType": "address payable",
          "name": "_client",
          "type": "address"
        },
        {
          "internalType": "uint256",
          "name": "_clientPubKey",
          "type": "uint256"
        }
      ],
      "stateMutability": "nonpayable",
      "type": "constructor"
    },
    {
      "inputs": [],
      "name": "clientPubKey",
      "outputs": [
        {
          "internalType": "uint256",
          "name": "",
          "type": "uint256"
        }
      ],
      "stateMutability": "view",
      "type": "function"
    },
    {
      "inputs": [
        {
          "internalType": "uint32",
          "name": "numInputTokens",
          "type": "uint32"
        },
        {
          "internalType": "uint32",
          "name": "numOutputTokens",
          "type": "uint32"
        }
      ],
      "name": "notifyResponse",
      "outputs": [],
      "stateMutability": "nonpayable",
      "type": "function"
    },
    {
      "inputs": [],
      "name": "refund",
      "outputs": [],
      "stateMutability": "nonpayable",
      "type": "function"
    },
    {
      "inputs": [],
      "name": "satisfied",
      "outputs": [],
      "stateMutability": "nonpayable",
      "type": "function"
    },
    {
      "inputs": [],
      "name": "serverAddress",
      "outputs": [
        {
          "internalType": "address",
          "name": "",
          "type": "address"
        }
      ],
      "stateMutability": "view",
      "type": "function"
    },
    {
      "inputs": [
        {
          "internalType": "int256",
          "name": "",
          "type": "int256"
        }
      ],
      "name": "unsatisfied",
      "outputs": [],
      "stateMutability": "nonpayable",
      "type": "function"
    }
  ],
  "bytecode": "0x608060405234801561001057600080fd5b5060405161055038038061055083398101604081905261002f9161009c565b60009590955560019390935560029190915560038054336001600160a01b0319918216179091556004805482166001600160a01b0393841617905560058054909116919092161790556006556100fb565b80516001600160a01b038116811461009757600080fd5b919050565b60008060008060008060c087890312156100b557600080fd5b865160208801516040890151919750955093506100d460608801610080565b92506100e260808801610080565b9150600060a08801519050809150509295509295509295565b6104468061010a6000396000f3fe608060405234801561001057600080fd5b50600436106100625760003560e01c8063191fc19d146100675780631c8dfe2f146100835780633a40f3b214610098578063590e1ae3146100a0578063d4300b18146100a8578063db420fe3146100bb575b600080fd5b61007060065481565b6040519081526020015b60405180910390f35b61009661009136600461030c565b6100e6565b005b610096610124565b610096610192565b6100966100b636600461033e565b6101f7565b6003546100ce906001600160a01b031681565b6040516001600160a01b03909116815260200161007a565b6005546001600160a01b031633146101195760405162461bcd60e51b815260040161011090610371565b60405180910390fd5b6101216102aa565b50565b6005546001600160a01b0316331461014e5760405162461bcd60e51b815260040161011090610371565b6004546040516001600160a01b03909116904780156108fc02916000818181858888f19350505050158015610187573d6000803e3d6000fd5b506101906102aa565b565b6004546001600160a01b03163314806101b557506005546001600160a01b031633145b6101be57600080fd5b6005546040516001600160a01b03909116904780156108fc02916000818181858888f19350505050158015610187573d6000803e3d6000fd5b6004546001600160a01b031633146102665760405162461bcd60e51b815260206004820152602c60248201527f6f6e6c792074686520736572766572206f776e65722063616e2063616c6c207460448201526b3434b990333ab731ba34b7b760a11b6064820152608401610110565b6002546102799063ffffffff83166103cd565b60015461028c9063ffffffff85166103cd565b61029691906103ea565b6000546102a391906103fd565b6000555050565b6003546040805163fd26f03760e01b815290516001600160a01b0390921691829163fd26f03791600480830192600092919082900301818387803b1580156102f157600080fd5b505af1158015610305573d6000803e3d6000fd5b5050505050565b60006020828403121561031e57600080fd5b5035919050565b803563ffffffff8116811461033957600080fd5b919050565b6000806040838503121561035157600080fd5b61035a83610325565b915061036860208401610325565b90509250929050565b60208082526026908201527f6f6e6c792074686520636c69656e742063616e2063616c6c20746869732066756040820152653731ba34b7b760d11b606082015260800190565b634e487b7160e01b600052601160045260246000fd5b80820281158282048414176103e4576103e46103b7565b92915050565b808201808211156103e4576103e46103b7565b818103818111156103e4576103e46103b756fea2646970667358221220c7bf961eec6245f23e82bb2dd2cc4ed83025e7a6b411ec91a5513e10911ebe0864736f6c634300081c0033",
  "linkReferences": {},
  "deployedLinkReferences": {}
}