{
  "_format": "hh-sol-artifact-1",
  "contractName": "LLMAgreement",
  "sourceName": "contracts/LLMAgreement.sol",
  "abi": [
    {
      "inputs": [
        {
          "internalType": "uint256",
          "name": "_initialBalance",
          "type": "uint256"
        },
        {
          "internalType": "uint256",
          "name": "_inputTokenCost",
          "type": "uint256"
        },
        {
          "internalType": "uint256",
          "name": "_outputTokenCost",
          "type": "uint256"
        },
        {
          "internalType": "address payable",
          "name": "_serverOwner",
          "type": "address"
        },
        {
          "internalType": "address payable",
          "name": "_client",
          "type": "address"
        },
        {
          "internalType": "uint256",
          "name": "_clientPubKey",
          "type": "uint256"
        }
      ],
      "stateMutability": "nonpayable",
      "type": "constructor"
    },
    {
      "inputs": [],
      "name": "clientPubKey",
      "outputs": [
        {
          "internalType": "uint256",
          "name": "",
          "type": "uint256"
        }
      ],
      "stateMutability": "view",
      "type": "function"
    },
    {
      "inputs": [
        {
          "internalType": "uint32",
          "name": "numInputTokens",
          "type": "uint32"
        },
        {
          "internalType": "uint32",
          "name": "numOutputTokens",
          "type": "uint32"
        }
      ],
      "name": "notifyResponse",
      "outputs": [],
      "stateMutability": "nonpayable",
      "type": "function"
    },
    {
      "inputs": [],
      "name": "refund",
      "outputs": [],
      "stateMutability": "nonpayable",
      "type": "function"
    },
    {
      "inputs": [],
      "name": "satisfied",
      "outputs": [],
      "stateMutability": "nonpayable",
      "type": "function"
    },
    {
      "inputs": [],
      "name": "serverAddress",
      "outputs": [
        {
          "internalType": "address",
          "name": "",
          "type": "address"
        }
      ],
      "stateMutability": "view",
      "type": "function"
    },
    {
      "inputs": [
        {
          "internalType": "int256",
          "name": "",
          "type": "int256"
        }
      ],
      "name": "unsatisfied",
      "outputs": [],
      "stateMutability": "nonpayable",
      "type": "function"
    }
  ],
  "bytecode": "0x608060405234801561001057600080fd5b5060405161055538038061055583398101604081905261002f9161009c565b60009590955560019390935560029190915560038054336001600160a01b0319918216179091556004805482166001600160a01b0393841617905560058054909116919092161790556006556100fb565b80516001600160a01b038116811461009757600080fd5b919050565b60008060008060008060c087890312156100b557600080fd5b865160208801516040890151919750955093506100d460608801610080565b92506100e260808801610080565b9150600060a08801519050809150509295509295509295565b61044b8061010a6000396000f3fe608060405234801561001057600080fd5b50600436106100625760003560e01c8063191fc19d146100675780631c8dfe2f146100835780633a40f3b214610098578063590e1ae3146100a0578063d4300b18146100a8578063db420fe3146100bb575b600080fd5b61007060065481565b6040519081526020015b60405180910390f35b6100966100913660046102c5565b6100e6565b005b610096610124565b610096610192565b6100966100b63660046102f7565b6101f5565b6003546100ce906001600160a01b031681565b6040516001600160a01b03909116815260200161007a565b6005546001600160a01b031633146101195760405162461bcd60e51b81526004016101109061032a565b60405180910390fd5b610121610263565b50565b6005546001600160a01b0316331461014e5760405162461bcd60e51b81526004016101109061032a565b6004546040516001600160a01b03909116904780156108fc02916000818181858888f19350505050158015610187573d6000803e3d6000fd5b50610190610263565b565b6005546001600160a01b031633146101bc5760405162461bcd60e51b815260040161011090610370565b6005546040516001600160a01b03909116904780156108fc02916000818181858888f19350505050158015610187573d6000803e3d6000fd5b6004546001600160a01b0316331461021f5760405162461bcd60e51b815260040161011090610370565b6002546102329063ffffffff83166103d2565b6001546102459063ffffffff85166103d2565b61024f91906103ef565b60005461025c9190610402565b6000555050565b6003546040805163fd26f03760e01b815290516001600160a01b0390921691829163fd26f03791600480830192600092919082900301818387803b1580156102aa57600080fd5b505af11580156102be573d6000803e3d6000fd5b5050505050565b6000602082840312156102d757600080fd5b5035919050565b803563ffffffff811681146102f257600080fd5b919050565b6000806040838503121561030a57600080fd5b610313836102de565b9150610321602084016102de565b90509250929050565b60208082526026908201527f6f6e6c792074686520636c69656e742063616e2063616c6c20746869732066756040820152653731ba34b7b760d11b606082015260800190565b6020808252602c908201527f6f6e6c792074686520736572766572206f776e65722063616e2063616c6c207460408201526b3434b990333ab731ba34b7b760a11b606082015260800190565b634e487b7160e01b600052601160045260246000fd5b80820281158282048414176103e9576103e96103bc565b92915050565b808201808211156103e9576103e96103bc565b818103818111156103e9576103e96103bc56fea26469706673582212201bf196bb2608e5a2df76a5ad311628b51324b3be7a6b36fe6710e0085cc4895564736f6c634300081c0033",
  "linkReferences": {},
  "deployedLinkReferences": {}
}