{
  "_format": "hh-sol-artifact-1",
  "contractName": "LLMAgreement",
  "sourceName": "contracts/LLMAgreement.sol",
  "abi": [
    {
      "inputs": [
        {
          "internalType": "uint256",
          "name": "_initialBalance",
          "type": "uint256"
        },
        {
          "internalType": "uint256",
          "name": "_inputTokenCost",
          "type": "uint256"
        },
        {
          "internalType": "uint256",
          "name": "_outputTokenCost",
          "type": "uint256"
        },
        {
          "internalType": "address payable",
          "name": "_serverOwner",
          "type": "address"
        },
        {
          "internalType": "address payable",
          "name": "_client",
          "type": "address"
        },
        {
          "internalType": "uint256",
          "name": "_clientPubKey",
          "type": "uint256"
        }
      ],
      "stateMutability": "nonpayable",
      "type": "constructor"
    },
    {
      "inputs": [],
      "name": "clientPubKey",
      "outputs": [
        {
          "internalType": "uint256",
          "name": "",
          "type": "uint256"
        }
      ],
      "stateMutability": "view",
      "type": "function"
    },
    {
      "inputs": [
        {
          "internalType": "uint32",
          "name": "numInputTokens",
          "type": "uint32"
        },
        {
          "internalType": "uint32",
          "name": "numOutputTokens",
          "type": "uint32"
        }
      ],
      "name": "notifyResponse",
      "outputs": [],
      "stateMutability": "nonpayable",
      "type": "function"
    },
    {
      "inputs": [],
      "name": "refund",
      "outputs": [],
      "stateMutability": "nonpayable",
      "type": "function"
    },
    {
      "inputs": [],
      "name": "satisfied",
      "outputs": [],
      "stateMutability": "nonpayable",
      "type": "function"
    },
    {
      "inputs": [],
      "name": "serverAddress",
      "outputs": [
        {
          "internalType": "address",
          "name": "",
          "type": "address"
        }
      ],
      "stateMutability": "view",
      "type": "function"
    },
    {
      "inputs": [],
      "name": "unsatisfied",
      "outputs": [],
      "stateMutability": "nonpayable",
      "type": "function"
    }
  ],
  "bytecode": "0x608060405234801561001057600080fd5b5060405161059b38038061059b83398101604081905261002f9161009c565b60009590955560019390935560029190915560038054336001600160a01b0319918216179091556004805482166001600160a01b0393841617905560058054909116919092161790556006556100fb565b80516001600160a01b038116811461009757600080fd5b919050565b60008060008060008060c087890312156100b557600080fd5b865160208801516040890151919750955093506100d460608801610080565b92506100e260808801610080565b9150600060a08801519050809150509295509295509295565b6104918061010a6000396000f3fe608060405234801561001057600080fd5b50600436106100625760003560e01c8063191fc19d146100675780633604d8af146100835780633a40f3b21461008d578063590e1ae314610095578063d4300b181461009d578063db420fe3146100b0575b600080fd5b61007060065481565b6040519081526020015b60405180910390f35b61008b6100db565b005b61008b610153565b61008b6101f1565b61008b6100ab36600461033d565b610254565b6003546100c3906001600160a01b031681565b6040516001600160a01b03909116815260200161007a565b6005546001600160a01b0316331461010e5760405162461bcd60e51b815260040161010590610370565b60405180910390fd5b600554600080546040516001600160a01b039093169281156108fc0292818181858888f19350505050158015610148573d6000803e3d6000fd5b506101516102c2565b565b6005546001600160a01b0316331461017d5760405162461bcd60e51b815260040161010590610370565b600554600080546040516001600160a01b039093169281156108fc0292818181858888f193505050501580156101b7573d6000803e3d6000fd5b506004546040516001600160a01b03909116904780156108fc02916000818181858888f19350505050158015610148573d6000803e3d6000fd5b6005546001600160a01b0316331461021b5760405162461bcd60e51b8152600401610105906103b6565b6005546040516001600160a01b03909116904780156108fc02916000818181858888f19350505050158015610148573d6000803e3d6000fd5b6004546001600160a01b0316331461027e5760405162461bcd60e51b8152600401610105906103b6565b6002546102919063ffffffff8316610418565b6001546102a49063ffffffff8516610418565b6102ae9190610435565b6000546102bb9190610448565b6000555050565b6003546040805163fd26f03760e01b815290516001600160a01b0390921691829163fd26f03791600480830192600092919082900301818387803b15801561030957600080fd5b505af115801561031d573d6000803e3d6000fd5b5050505050565b803563ffffffff8116811461033857600080fd5b919050565b6000806040838503121561035057600080fd5b61035983610324565b915061036760208401610324565b90509250929050565b60208082526026908201527f6f6e6c792074686520636c69656e742063616e2063616c6c20746869732066756040820152653731ba34b7b760d11b606082015260800190565b6020808252602c908201527f6f6e6c792074686520736572766572206f776e65722063616e2063616c6c207460408201526b3434b990333ab731ba34b7b760a11b606082015260800190565b634e487b7160e01b600052601160045260246000fd5b808202811582820484141761042f5761042f610402565b92915050565b8082018082111561042f5761042f610402565b8181038181111561042f5761042f61040256fea26469706673582212202c11d30e37cdafc50c9a7b9503bbc4a4642f3d8bf5da97e22817128adc065cf964736f6c634300081c0033",
  "linkReferences": {},
  "deployedLinkReferences": {}
}