{
  "_format": "hh-sol-artifact-1",
  "contractName": "LLMServer",
  "sourceName": "contracts/LLMServer.sol",
  "abi": [
    {
      "inputs": [
        {
          "internalType": "address payable",
          "name": "_serverOwner",
          "type": "address"
        },
        {
          "internalType": "address",
          "name": "_brokerAddress",
          "type": "address"
        },
        {
          "internalType": "uint32",
          "name": "_brokerIndex",
          "type": "uint32"
        }
      ],
      "stateMutability": "nonpayable",
      "type": "constructor"
    },
    {
      "inputs": [
        {
          "internalType": "address",
          "name": "",
          "type": "address"
        }
      ],
      "name": "agreements",
      "outputs": [
        {
          "internalType": "address",
          "name": "",
          "type": "address"
        }
      ],
      "stateMutability": "view",
      "type": "function"
    },
    {
      "inputs": [],
      "name": "costInUSD",
      "outputs": [
        {
          "internalType": "bool",
          "name": "",
          "type": "bool"
        }
      ],
      "stateMutability": "view",
      "type": "function"
    },
    {
      "inputs": [
        {
          "internalType": "uint256",
          "name": "pubKey",
          "type": "uint256"
        }
      ],
      "name": "createAgreement",
      "outputs": [
        {
          "internalType": "address",
          "name": "",
          "type": "address"
        }
      ],
      "stateMutability": "payable",
      "type": "function"
    },
    {
      "inputs": [],
      "name": "currentAgreements",
      "outputs": [
        {
          "internalType": "uint16",
          "name": "",
          "type": "uint16"
        }
      ],
      "stateMutability": "view",
      "type": "function"
    },
    {
      "inputs": [],
      "name": "destroySelf",
      "outputs": [],
      "stateMutability": "nonpayable",
      "type": "function"
    },
    {
      "inputs": [],
      "name": "endAgreement",
      "outputs": [],
      "stateMutability": "nonpayable",
      "type": "function"
    },
    {
      "inputs": [
        {
          "internalType": "address",
          "name": "clientAddress",
          "type": "address"
        }
      ],
      "name": "getAgreementContract",
      "outputs": [
        {
          "internalType": "address",
          "name": "",
          "type": "address"
        }
      ],
      "stateMutability": "view",
      "type": "function"
    },
    {
      "inputs": [
        {
          "internalType": "address",
          "name": "clientAddress",
          "type": "address"
        }
      ],
      "name": "getAgreementPubKey",
      "outputs": [
        {
          "internalType": "uint256",
          "name": "",
          "type": "uint256"
        }
      ],
      "stateMutability": "view",
      "type": "function"
    },
    {
      "inputs": [],
      "name": "getInputTokenCost",
      "outputs": [
        {
          "internalType": "uint256",
          "name": "",
          "type": "uint256"
        }
      ],
      "stateMutability": "view",
      "type": "function"
    },
    {
      "inputs": [],
      "name": "getOutputTokenCost",
      "outputs": [
        {
          "internalType": "uint256",
          "name": "",
          "type": "uint256"
        }
      ],
      "stateMutability": "view",
      "type": "function"
    },
    {
      "inputs": [],
      "name": "model",
      "outputs": [
        {
          "internalType": "string",
          "name": "",
          "type": "string"
        }
      ],
      "stateMutability": "view",
      "type": "function"
    },
    {
      "inputs": [
        {
          "internalType": "uint256",
          "name": "_inputTokenCost",
          "type": "uint256"
        },
        {
          "internalType": "uint256",
          "name": "_outputTokenCost",
          "type": "uint256"
        },
        {
          "internalType": "bool",
          "name": "_costInUsd",
          "type": "bool"
        }
      ],
      "name": "setTokenCost",
      "outputs": [],
      "stateMutability": "nonpayable",
      "type": "function"
    },
    {
      "inputs": [
        {
          "internalType": "uint16",
          "name": "_maxConcurrentAgreements",
          "type": "uint16"
        }
      ],
      "name": "setmaxConcurrentAgreements",
      "outputs": [],
      "stateMutability": "nonpayable",
      "type": "function"
    },
    {
      "inputs": [
        {
          "internalType": "string",
          "name": "_endpoint",
          "type": "string"
        },
        {
          "internalType": "string",
          "name": "_model",
          "type": "string"
        },
        {
          "internalType": "uint256",
          "name": "_inputTokenCost",
          "type": "uint256"
        },
        {
          "internalType": "uint256",
          "name": "_outputTokenCost",
          "type": "uint256"
        }
      ],
      "name": "setupModel",
      "outputs": [],
      "stateMutability": "nonpayable",
      "type": "function"
    },
    {
      "inputs": [
        {
          "internalType": "uint32",
          "name": "newIndex",
          "type": "uint32"
        }
      ],
      "name": "updateIndex",
      "outputs": [],
      "stateMutability": "nonpayable",
      "type": "function"
    }
  ],
  "bytecode": "0x608060405234801561001057600080fd5b5060405161197238038061197283398101604081905261002f91610234565b600080546001600160a01b038481166001600160c01b031990921691909117600160a01b63ffffffff85160217909155600680549185166001600160b01b031990921691909117600560a01b1790556100866100de565b600880546001600160a01b0392909216620100000262010000600160b01b03199092169190911790556040805160208101909152665193148bd554d160c21b81526100d59060099060016101a7565b505050506102ae565b600073ad67fe66660fb8dfe9d6b1b4240d8650e30f60196001600160a01b031663159354a260405160200161012d90602080825260069082015265233a39b7ab1960d11b604082015260600190565b604051602081830303815290604052805190602001206040518263ffffffff1660e01b815260040161016191815260200190565b602060405180830381865afa15801561017e573d6000803e3d6000fd5b505050506040513d601f19601f820116820180604052508101906101a2919061028a565b905090565b8280548282559060005260206000209081019282156101f7579160200282015b828111156101f757825182546001600160a81b03191660589190911c1782556020909201916001909101906101c7565b50610203929150610207565b5090565b5b808211156102035760008155600101610208565b6001600160a01b038116811461023157600080fd5b50565b60008060006060848603121561024957600080fd5b83516102548161021c565b60208501519093506102658161021c565b604085015190925063ffffffff8116811461027f57600080fd5b809150509250925092565b60006020828403121561029c57600080fd5b81516102a78161021c565b9392505050565b6116b5806102bd6000396000f3fe6080604052600436106100e85760003560e01c80634e22410a1161008a578063c42f9fce11610059578063c42f9fce14610272578063c76171d1146102a0578063f37e0b6e146102d9578063fd26f037146102f957600080fd5b80634e22410a146101f35780636b8462be1461021d578063b742783314610232578063c2f8b7e91461025257600080fd5b80631e2186ae116100c65780631e2186ae146101665780632463066e1461017d57806331dcd8b71461019d5780633ce2aa99146101bd57600080fd5b80630ad9d052146100ed57806310f7d7d6146101185780631cf205bd14610143575b600080fd5b3480156100f957600080fd5b5061010261030e565b60405161010f9190610a39565b60405180910390f35b61012b610126366004610a87565b61039c565b6040516001600160a01b03909116815260200161010f565b34801561014f57600080fd5b50610158610533565b60405190815260200161010f565b34801561017257600080fd5b5061017b610558565b005b34801561018957600080fd5b5061017b610198366004610ae9565b6105f0565b3480156101a957600080fd5b5061017b6101b8366004610b6c565b6106c1565b3480156101c957600080fd5b5061012b6101d8366004610baa565b6007602052600090815260409020546001600160a01b031681565b3480156101ff57600080fd5b5060045461020d9060ff1681565b604051901515815260200161010f565b34801561022957600080fd5b50610158610782565b34801561023e57600080fd5b5061017b61024d366004610bda565b61079e565b34801561025e57600080fd5b5061015861026d366004610baa565b6107ea565b34801561027e57600080fd5b5060085461028d9061ffff1681565b60405161ffff909116815260200161010f565b3480156102ac57600080fd5b5061012b6102bb366004610baa565b6001600160a01b039081166000908152600760205260409020541690565b3480156102e557600080fd5b5061017b6102f4366004610bfe565b61086b565b34801561030557600080fd5b5061017b6108fd565b6001805461031b90610c24565b80601f016020809104026020016040519081016040528092919081815260200182805461034790610c24565b80156103945780601f1061036957610100808354040283529160200191610394565b820191906000526020600020905b81548152906001019060200180831161037757829003601f168201915b505050505081565b60065460085460009161ffff600160a01b90910481169116111561041d5760405162461bcd60e51b815260206004820152602d60248201527f54686973207365727665722068617320697473206d6178696d756d206e756d6260448201526c6572206f6620636c69656e747360981b60648201526084015b60405180910390fd5b600034600254600354600660009054906101000a90046001600160a01b0316338760405161044a90610a2c565b958652602086019490945260408501929092526001600160a01b03908116606085015216608083015260a082015260c001604051809103906000f080158015610497573d6000803e3d6000fd5b506040519091506001600160a01b038216903480156108fc02916000818181858888f193505050501580156104d0573d6000803e3d6000fd5b5033600090815260076020526040812080546001600160a01b0319166001600160a01b038416179055600880546001929061051090849061ffff16610c74565b92506101000a81548161ffff021916908361ffff16021790555080915050919050565b60045460009060ff16156105515761054c60035461094d565b905090565b5060035490565b6006546001600160a01b031633146105825760405162461bcd60e51b815260040161041490610c8e565b6000546040516364ce8ecb60e01b8152600160a01b820463ffffffff1660048201526001600160a01b039091169081906364ce8ecb90602401600060405180830381600087803b1580156105d557600080fd5b505af11580156105e9573d6000803e3d6000fd5b5050505050565b6006546001600160a01b0316331461061a5760405162461bcd60e51b815260040161041490610c8e565b6001610627848683610d3c565b5060028290556003819055600561063f868883610d3c565b5060005460405163605e9da560e11b81526001600160a01b03821691829163c0bd3b4a9161068691600160a01b90910463ffffffff16908990899089908990600401610dfc565b600060405180830381600087803b1580156106a057600080fd5b505af11580156106b4573d6000803e3d6000fd5b5050505050505050505050565b6006546001600160a01b031633146106eb5760405162461bcd60e51b815260040161041490610c8e565b600283905560038290556004805460ff19168215151781556000546040516377fee17560e01b8152600160a01b820463ffffffff169281019290925260248201859052604482018490526001600160a01b03169081906377fee17590606401600060405180830381600087803b15801561076457600080fd5b505af1158015610778573d6000803e3d6000fd5b5050505050505050565b60045460009060ff1615610797575060025490565b5060025490565b6006546001600160a01b031633146107c85760405162461bcd60e51b815260040161041490610c8e565b6006805461ffff909216600160a01b0261ffff60a01b19909216919091179055565b6001600160a01b03808216600090815260076020908152604080832054815163191fc19d60e01b815291519394169263191fc19d926004808401939192918290030181865afa158015610841573d6000803e3d6000fd5b505050506040513d601f19601f820116820180604052508101906108659190610e49565b92915050565b6000546001600160a01b031633146108d75760405162461bcd60e51b815260206004820152602960248201527f6f6e6c79207468652062726f6b65726167652063616e2063616c6c207468697360448201526810333ab731ba34b7b760b91b6064820152608401610414565b6000805463ffffffff909216600160a01b0263ffffffff60a01b19909216919091179055565b33600090815260076020526040812080546001600160a01b0319169055600880546001929061093190849061ffff16610e62565b92506101000a81548161ffff021916908361ffff160217905550565b600854604051634c37574560e01b8152600091829182916201000090046001600160a01b031690634c3757459061098990600990600401610e7c565b600060405180830381865afa1580156109a6573d6000803e3d6000fd5b505050506040513d6000823e601f3d908101601f191682016040526109ce9190810190610fc1565b5091509150816000815181106109e6576109e6611095565b602002602001015181600081518110610a0157610a01611095565b6020026020010151600a1860ff1685610a1a91906110ab565b610a2491906110c2565b949350505050565b61059b806110e583390190565b602081526000825180602084015260005b81811015610a675760208186018101516040868401015201610a4a565b506000604082850101526040601f19601f83011684010191505092915050565b600060208284031215610a9957600080fd5b5035919050565b60008083601f840112610ab257600080fd5b50813567ffffffffffffffff811115610aca57600080fd5b602083019150836020828501011115610ae257600080fd5b9250929050565b60008060008060008060808789031215610b0257600080fd5b863567ffffffffffffffff811115610b1957600080fd5b610b2589828a01610aa0565b909750955050602087013567ffffffffffffffff811115610b4557600080fd5b610b5189828a01610aa0565b979a9699509760408101359660609091013595509350505050565b600080600060608486031215610b8157600080fd5b833592506020840135915060408401358015158114610b9f57600080fd5b809150509250925092565b600060208284031215610bbc57600080fd5b81356001600160a01b0381168114610bd357600080fd5b9392505050565b600060208284031215610bec57600080fd5b813561ffff81168114610bd357600080fd5b600060208284031215610c1057600080fd5b813563ffffffff81168114610bd357600080fd5b600181811c90821680610c3857607f821691505b602082108103610c5857634e487b7160e01b600052602260045260246000fd5b50919050565b634e487b7160e01b600052601160045260246000fd5b61ffff818116838216019081111561086557610865610c5e565b6020808252602c908201527f6f6e6c792074686520736572766572206f776e65722063616e2063616c6c207460408201526b3434b990333ab731ba34b7b760a11b606082015260800190565b634e487b7160e01b600052604160045260246000fd5b601f821115610d3757806000526020600020601f840160051c81016020851015610d175750805b601f840160051c820191505b818110156105e95760008155600101610d23565b505050565b67ffffffffffffffff831115610d5457610d54610cda565b610d6883610d628354610c24565b83610cf0565b6000601f841160018114610d9c5760008515610d845750838201355b600019600387901b1c1916600186901b1783556105e9565b600083815260209020601f19861690835b82811015610dcd5786850135825560209485019460019092019101610dad565b5086821015610dea5760001960f88860031b161c19848701351681555b505060018560011b0183555050505050565b63ffffffff8616815260806020820152836080820152838560a0830137600060a08583010152600060a0601f19601f87011683010190508360408301528260608301529695505050505050565b600060208284031215610e5b57600080fd5b5051919050565b61ffff828116828216039081111561086557610865610c5e565b602080825282548282018190526000848152918220906040840190835b81811015610ec857835460581b6affffffffffffffffffffff1916835260019384019360209093019201610e99565b509095945050505050565b604051601f8201601f1916810167ffffffffffffffff81118282101715610efc57610efc610cda565b604052919050565b600067ffffffffffffffff821115610f1e57610f1e610cda565b5060051b60200190565b600082601f830112610f3957600080fd5b8151610f4c610f4782610f04565b610ed3565b8082825260208201915060208360051b860101925085831115610f6e57600080fd5b602085015b83811015610f9a5780518060000b8114610f8c57600080fd5b835260209283019201610f73565b5095945050505050565b805167ffffffffffffffff81168114610fbc57600080fd5b919050565b600080600060608486031215610fd657600080fd5b835167ffffffffffffffff811115610fed57600080fd5b8401601f81018613610ffe57600080fd5b805161100c610f4782610f04565b8082825260208201915060208360051b85010192508883111561102e57600080fd5b6020840193505b82841015611050578351825260209384019390910190611035565b80965050505050602084015167ffffffffffffffff81111561107157600080fd5b61107d86828701610f28565b92505061108c60408501610fa4565b90509250925092565b634e487b7160e01b600052603260045260246000fd5b808202811582820484141761086557610865610c5e565b6000826110df57634e487b7160e01b600052601260045260246000fd5b50049056fe608060405234801561001057600080fd5b5060405161059b38038061059b83398101604081905261002f9161009c565b60009590955560019390935560029190915560038054336001600160a01b0319918216179091556004805482166001600160a01b0393841617905560058054909116919092161790556006556100fb565b80516001600160a01b038116811461009757600080fd5b919050565b60008060008060008060c087890312156100b557600080fd5b865160208801516040890151919750955093506100d460608801610080565b92506100e260808801610080565b9150600060a08801519050809150509295509295509295565b6104918061010a6000396000f3fe608060405234801561001057600080fd5b50600436106100625760003560e01c8063191fc19d146100675780633604d8af146100835780633a40f3b21461008d578063590e1ae314610095578063d4300b181461009d578063db420fe3146100b0575b600080fd5b61007060065481565b6040519081526020015b60405180910390f35b61008b6100db565b005b61008b610153565b61008b6101f1565b61008b6100ab36600461033d565b610254565b6003546100c3906001600160a01b031681565b6040516001600160a01b03909116815260200161007a565b6005546001600160a01b0316331461010e5760405162461bcd60e51b815260040161010590610370565b60405180910390fd5b600554600080546040516001600160a01b039093169281156108fc0292818181858888f19350505050158015610148573d6000803e3d6000fd5b506101516102c2565b565b6005546001600160a01b0316331461017d5760405162461bcd60e51b815260040161010590610370565b600554600080546040516001600160a01b039093169281156108fc0292818181858888f193505050501580156101b7573d6000803e3d6000fd5b506004546040516001600160a01b03909116904780156108fc02916000818181858888f19350505050158015610148573d6000803e3d6000fd5b6005546001600160a01b0316331461021b5760405162461bcd60e51b8152600401610105906103b6565b6005546040516001600160a01b03909116904780156108fc02916000818181858888f19350505050158015610148573d6000803e3d6000fd5b6004546001600160a01b0316331461027e5760405162461bcd60e51b8152600401610105906103b6565b6002546102919063ffffffff8316610418565b6001546102a49063ffffffff8516610418565b6102ae9190610435565b6000546102bb9190610448565b6000555050565b6003546040805163fd26f03760e01b815290516001600160a01b0390921691829163fd26f03791600480830192600092919082900301818387803b15801561030957600080fd5b505af115801561031d573d6000803e3d6000fd5b5050505050565b803563ffffffff8116811461033857600080fd5b919050565b6000806040838503121561035057600080fd5b61035983610324565b915061036760208401610324565b90509250929050565b60208082526026908201527f6f6e6c792074686520636c69656e742063616e2063616c6c20746869732066756040820152653731ba34b7b760d11b606082015260800190565b6020808252602c908201527f6f6e6c792074686520736572766572206f776e65722063616e2063616c6c207460408201526b3434b990333ab731ba34b7b760a11b606082015260800190565b634e487b7160e01b600052601160045260246000fd5b808202811582820484141761042f5761042f610402565b92915050565b8082018082111561042f5761042f610402565b8181038181111561042f5761042f61040256fea26469706673582212202c11d30e37cdafc50c9a7b9503bbc4a4642f3d8bf5da97e22817128adc065cf964736f6c634300081c0033a2646970667358221220c9e8173338d13bf667c69efaf4b29264f1cc89819c662f048d1107f697c5b6a564736f6c634300081c0033",
  "linkReferences": {},
  "deployedLinkReferences": {}
}