{
  "_format": "hh-sol-artifact-1",
  "contractName": "LLMServer",
  "sourceName": "contracts/LLMServer.sol",
  "abi": [
    {
      "inputs": [
        {
          "internalType": "address payable",
          "name": "_serverOwner",
          "type": "address"
        },
        {
          "internalType": "address",
          "name": "_brokerAddress",
          "type": "address"
        },
        {
          "internalType": "uint32",
          "name": "_brokerIndex",
          "type": "uint32"
        }
      ],
      "stateMutability": "nonpayable",
      "type": "constructor"
    },
    {
      "inputs": [
        {
          "internalType": "address",
          "name": "",
          "type": "address"
        }
      ],
      "name": "agreements",
      "outputs": [
        {
          "internalType": "address",
          "name": "",
          "type": "address"
        }
      ],
      "stateMutability": "view",
      "type": "function"
    },
    {
      "inputs": [],
      "name": "costInUSD",
      "outputs": [
        {
          "internalType": "bool",
          "name": "",
          "type": "bool"
        }
      ],
      "stateMutability": "view",
      "type": "function"
    },
    {
      "inputs": [
        {
          "internalType": "uint256",
          "name": "pubKey",
          "type": "uint256"
        }
      ],
      "name": "createAgreement",
      "outputs": [
        {
          "internalType": "address",
          "name": "",
          "type": "address"
        }
      ],
      "stateMutability": "payable",
      "type": "function"
    },
    {
      "inputs": [],
      "name": "currentAgreements",
      "outputs": [
        {
          "internalType": "uint16",
          "name": "",
          "type": "uint16"
        }
      ],
      "stateMutability": "view",
      "type": "function"
    },
    {
      "inputs": [],
      "name": "destroySelf",
      "outputs": [],
      "stateMutability": "nonpayable",
      "type": "function"
    },
    {
      "inputs": [],
      "name": "endAgreement",
      "outputs": [],
      "stateMutability": "nonpayable",
      "type": "function"
    },
    {
      "inputs": [
        {
          "internalType": "address",
          "name": "clientAddress",
          "type": "address"
        }
      ],
      "name": "getAgreementPubKey",
      "outputs": [
        {
          "internalType": "uint256",
          "name": "",
          "type": "uint256"
        }
      ],
      "stateMutability": "view",
      "type": "function"
    },
    {
      "inputs": [],
      "name": "getInputTokenCost",
      "outputs": [
        {
          "internalType": "uint256",
          "name": "",
          "type": "uint256"
        }
      ],
      "stateMutability": "view",
      "type": "function"
    },
    {
      "inputs": [],
      "name": "getOutputTokenCost",
      "outputs": [
        {
          "internalType": "uint256",
          "name": "",
          "type": "uint256"
        }
      ],
      "stateMutability": "view",
      "type": "function"
    },
    {
      "inputs": [],
      "name": "model",
      "outputs": [
        {
          "internalType": "string",
          "name": "",
          "type": "string"
        }
      ],
      "stateMutability": "view",
      "type": "function"
    },
    {
      "inputs": [
        {
          "internalType": "uint256",
          "name": "_inputTokenCost",
          "type": "uint256"
        },
        {
          "internalType": "uint256",
          "name": "_outputTokenCost",
          "type": "uint256"
        },
        {
          "internalType": "bool",
          "name": "_costInUsd",
          "type": "bool"
        }
      ],
      "name": "setTokenCost",
      "outputs": [],
      "stateMutability": "nonpayable",
      "type": "function"
    },
    {
      "inputs": [
        {
          "internalType": "uint16",
          "name": "_maxConcurrentAgreements",
          "type": "uint16"
        }
      ],
      "name": "setmaxConcurrentAgreements",
      "outputs": [],
      "stateMutability": "nonpayable",
      "type": "function"
    },
    {
      "inputs": [
        {
          "internalType": "string",
          "name": "_endpoint",
          "type": "string"
        },
        {
          "internalType": "string",
          "name": "_model",
          "type": "string"
        },
        {
          "internalType": "uint256",
          "name": "_inputTokenCost",
          "type": "uint256"
        },
        {
          "internalType": "uint256",
          "name": "_outputTokenCost",
          "type": "uint256"
        }
      ],
      "name": "setupModel",
      "outputs": [],
      "stateMutability": "nonpayable",
      "type": "function"
    },
    {
      "inputs": [
        {
          "internalType": "uint32",
          "name": "newIndex",
          "type": "uint32"
        }
      ],
      "name": "updateIndex",
      "outputs": [],
      "stateMutability": "nonpayable",
      "type": "function"
    }
  ],
  "bytecode": "0x608060405234801561001057600080fd5b506040516118e83803806118e883398101604081905261002f91610234565b600080546001600160a01b038481166001600160c01b031990921691909117600160a01b63ffffffff85160217909155600680549185166001600160b01b031990921691909117600560a01b1790556100866100de565b600880546001600160a01b0392909216620100000262010000600160b01b03199092169190911790556040805160208101909152665193148bd554d160c21b81526100d59060099060016101a7565b505050506102ae565b600073ad67fe66660fb8dfe9d6b1b4240d8650e30f60196001600160a01b031663159354a260405160200161012d90602080825260069082015265233a39b7ab1960d11b604082015260600190565b604051602081830303815290604052805190602001206040518263ffffffff1660e01b815260040161016191815260200190565b602060405180830381865afa15801561017e573d6000803e3d6000fd5b505050506040513d601f19601f820116820180604052508101906101a2919061028a565b905090565b8280548282559060005260206000209081019282156101f7579160200282015b828111156101f757825182546001600160a81b03191660589190911c1782556020909201916001909101906101c7565b50610203929150610207565b5090565b5b808211156102035760008155600101610208565b6001600160a01b038116811461023157600080fd5b50565b60008060006060848603121561024957600080fd5b83516102548161021c565b60208501519093506102658161021c565b604085015190925063ffffffff8116811461027f57600080fd5b809150509250925092565b60006020828403121561029c57600080fd5b81516102a78161021c565b9392505050565b61162b806102bd6000396000f3fe6080604052600436106100dd5760003560e01c80634e22410a1161007f578063c2f8b7e911610059578063c2f8b7e914610247578063c42f9fce14610267578063f37e0b6e14610295578063fd26f037146102b557600080fd5b80634e22410a146101e85780636b8462be14610212578063b74278331461022757600080fd5b80631e2186ae116100bb5780631e2186ae1461015b5780632463066e1461017257806331dcd8b7146101925780633ce2aa99146101b257600080fd5b80630ad9d052146100e257806310f7d7d61461010d5780631cf205bd14610138575b600080fd5b3480156100ee57600080fd5b506100f76102ca565b60405161010491906109f5565b60405180910390f35b61012061011b366004610a43565b610358565b6040516001600160a01b039091168152602001610104565b34801561014457600080fd5b5061014d6104ef565b604051908152602001610104565b34801561016757600080fd5b50610170610514565b005b34801561017e57600080fd5b5061017061018d366004610aa5565b6105ac565b34801561019e57600080fd5b506101706101ad366004610b28565b61067d565b3480156101be57600080fd5b506101206101cd366004610b66565b6007602052600090815260409020546001600160a01b031681565b3480156101f457600080fd5b506004546102029060ff1681565b6040519015158152602001610104565b34801561021e57600080fd5b5061014d61073e565b34801561023357600080fd5b50610170610242366004610b96565b61075a565b34801561025357600080fd5b5061014d610262366004610b66565b6107a6565b34801561027357600080fd5b506008546102829061ffff1681565b60405161ffff9091168152602001610104565b3480156102a157600080fd5b506101706102b0366004610bba565b610827565b3480156102c157600080fd5b506101706108b9565b600180546102d790610be0565b80601f016020809104026020016040519081016040528092919081815260200182805461030390610be0565b80156103505780601f1061032557610100808354040283529160200191610350565b820191906000526020600020905b81548152906001019060200180831161033357829003601f168201915b505050505081565b60065460085460009161ffff600160a01b9091048116911611156103d95760405162461bcd60e51b815260206004820152602d60248201527f54686973207365727665722068617320697473206d6178696d756d206e756d6260448201526c6572206f6620636c69656e747360981b60648201526084015b60405180910390fd5b600034600254600354600660009054906101000a90046001600160a01b03163387604051610406906109e8565b958652602086019490945260408501929092526001600160a01b03908116606085015216608083015260a082015260c001604051809103906000f080158015610453573d6000803e3d6000fd5b506040519091506001600160a01b038216903480156108fc02916000818181858888f1935050505015801561048c573d6000803e3d6000fd5b5033600090815260076020526040812080546001600160a01b0319166001600160a01b03841617905560088054600192906104cc90849061ffff16610c30565b92506101000a81548161ffff021916908361ffff16021790555080915050919050565b60045460009060ff161561050d57610508600354610909565b905090565b5060035490565b6006546001600160a01b0316331461053e5760405162461bcd60e51b81526004016103d090610c4a565b6000546040516364ce8ecb60e01b8152600160a01b820463ffffffff1660048201526001600160a01b039091169081906364ce8ecb90602401600060405180830381600087803b15801561059157600080fd5b505af11580156105a5573d6000803e3d6000fd5b5050505050565b6006546001600160a01b031633146105d65760405162461bcd60e51b81526004016103d090610c4a565b60016105e3848683610cf8565b506002829055600381905560056105fb868883610cf8565b5060005460405163605e9da560e11b81526001600160a01b03821691829163c0bd3b4a9161064291600160a01b90910463ffffffff16908990899089908990600401610db8565b600060405180830381600087803b15801561065c57600080fd5b505af1158015610670573d6000803e3d6000fd5b5050505050505050505050565b6006546001600160a01b031633146106a75760405162461bcd60e51b81526004016103d090610c4a565b600283905560038290556004805460ff19168215151781556000546040516377fee17560e01b8152600160a01b820463ffffffff169281019290925260248201859052604482018490526001600160a01b03169081906377fee17590606401600060405180830381600087803b15801561072057600080fd5b505af1158015610734573d6000803e3d6000fd5b5050505050505050565b60045460009060ff1615610753575060025490565b5060025490565b6006546001600160a01b031633146107845760405162461bcd60e51b81526004016103d090610c4a565b6006805461ffff909216600160a01b0261ffff60a01b19909216919091179055565b6001600160a01b03808216600090815260076020908152604080832054815163191fc19d60e01b815291519394169263191fc19d926004808401939192918290030181865afa1580156107fd573d6000803e3d6000fd5b505050506040513d601f19601f820116820180604052508101906108219190610e05565b92915050565b6000546001600160a01b031633146108935760405162461bcd60e51b815260206004820152602960248201527f6f6e6c79207468652062726f6b65726167652063616e2063616c6c207468697360448201526810333ab731ba34b7b760b91b60648201526084016103d0565b6000805463ffffffff909216600160a01b0263ffffffff60a01b19909216919091179055565b33600090815260076020526040812080546001600160a01b031916905560088054600192906108ed90849061ffff16610e1e565b92506101000a81548161ffff021916908361ffff160217905550565b600854604051634c37574560e01b8152600091829182916201000090046001600160a01b031690634c3757459061094590600990600401610e38565b600060405180830381865afa158015610962573d6000803e3d6000fd5b505050506040513d6000823e601f3d908101601f1916820160405261098a9190810190610f7d565b5091509150816000815181106109a2576109a2611051565b6020026020010151816000815181106109bd576109bd611051565b6020026020010151600a1860ff16856109d69190611067565b6109e0919061107e565b949350505050565b610555806110a183390190565b602081526000825180602084015260005b81811015610a235760208186018101516040868401015201610a06565b506000604082850101526040601f19601f83011684010191505092915050565b600060208284031215610a5557600080fd5b5035919050565b60008083601f840112610a6e57600080fd5b50813567ffffffffffffffff811115610a8657600080fd5b602083019150836020828501011115610a9e57600080fd5b9250929050565b60008060008060008060808789031215610abe57600080fd5b863567ffffffffffffffff811115610ad557600080fd5b610ae189828a01610a5c565b909750955050602087013567ffffffffffffffff811115610b0157600080fd5b610b0d89828a01610a5c565b979a9699509760408101359660609091013595509350505050565b600080600060608486031215610b3d57600080fd5b833592506020840135915060408401358015158114610b5b57600080fd5b809150509250925092565b600060208284031215610b7857600080fd5b81356001600160a01b0381168114610b8f57600080fd5b9392505050565b600060208284031215610ba857600080fd5b813561ffff81168114610b8f57600080fd5b600060208284031215610bcc57600080fd5b813563ffffffff81168114610b8f57600080fd5b600181811c90821680610bf457607f821691505b602082108103610c1457634e487b7160e01b600052602260045260246000fd5b50919050565b634e487b7160e01b600052601160045260246000fd5b61ffff818116838216019081111561082157610821610c1a565b6020808252602c908201527f6f6e6c792074686520736572766572206f776e65722063616e2063616c6c207460408201526b3434b990333ab731ba34b7b760a11b606082015260800190565b634e487b7160e01b600052604160045260246000fd5b601f821115610cf357806000526020600020601f840160051c81016020851015610cd35750805b601f840160051c820191505b818110156105a55760008155600101610cdf565b505050565b67ffffffffffffffff831115610d1057610d10610c96565b610d2483610d1e8354610be0565b83610cac565b6000601f841160018114610d585760008515610d405750838201355b600019600387901b1c1916600186901b1783556105a5565b600083815260209020601f19861690835b82811015610d895786850135825560209485019460019092019101610d69565b5086821015610da65760001960f88860031b161c19848701351681555b505060018560011b0183555050505050565b63ffffffff8616815260806020820152836080820152838560a0830137600060a08583010152600060a0601f19601f87011683010190508360408301528260608301529695505050505050565b600060208284031215610e1757600080fd5b5051919050565b61ffff828116828216039081111561082157610821610c1a565b602080825282548282018190526000848152918220906040840190835b81811015610e8457835460581b6affffffffffffffffffffff1916835260019384019360209093019201610e55565b509095945050505050565b604051601f8201601f1916810167ffffffffffffffff81118282101715610eb857610eb8610c96565b604052919050565b600067ffffffffffffffff821115610eda57610eda610c96565b5060051b60200190565b600082601f830112610ef557600080fd5b8151610f08610f0382610ec0565b610e8f565b8082825260208201915060208360051b860101925085831115610f2a57600080fd5b602085015b83811015610f565780518060000b8114610f4857600080fd5b835260209283019201610f2f565b5095945050505050565b805167ffffffffffffffff81168114610f7857600080fd5b919050565b600080600060608486031215610f9257600080fd5b835167ffffffffffffffff811115610fa957600080fd5b8401601f81018613610fba57600080fd5b8051610fc8610f0382610ec0565b8082825260208201915060208360051b850101925088831115610fea57600080fd5b6020840193505b8284101561100c578351825260209384019390910190610ff1565b80965050505050602084015167ffffffffffffffff81111561102d57600080fd5b61103986828701610ee4565b92505061104860408501610f60565b90509250925092565b634e487b7160e01b600052603260045260246000fd5b808202811582820484141761082157610821610c1a565b60008261109b57634e487b7160e01b600052601260045260246000fd5b50049056fe608060405234801561001057600080fd5b5060405161055538038061055583398101604081905261002f9161009c565b60009590955560019390935560029190915560038054336001600160a01b0319918216179091556004805482166001600160a01b0393841617905560058054909116919092161790556006556100fb565b80516001600160a01b038116811461009757600080fd5b919050565b60008060008060008060c087890312156100b557600080fd5b865160208801516040890151919750955093506100d460608801610080565b92506100e260808801610080565b9150600060a08801519050809150509295509295509295565b61044b8061010a6000396000f3fe608060405234801561001057600080fd5b50600436106100625760003560e01c8063191fc19d146100675780631c8dfe2f146100835780633a40f3b214610098578063590e1ae3146100a0578063d4300b18146100a8578063db420fe3146100bb575b600080fd5b61007060065481565b6040519081526020015b60405180910390f35b6100966100913660046102c5565b6100e6565b005b610096610124565b610096610192565b6100966100b63660046102f7565b6101f5565b6003546100ce906001600160a01b031681565b6040516001600160a01b03909116815260200161007a565b6005546001600160a01b031633146101195760405162461bcd60e51b81526004016101109061032a565b60405180910390fd5b610121610263565b50565b6005546001600160a01b0316331461014e5760405162461bcd60e51b81526004016101109061032a565b6004546040516001600160a01b03909116904780156108fc02916000818181858888f19350505050158015610187573d6000803e3d6000fd5b50610190610263565b565b6005546001600160a01b031633146101bc5760405162461bcd60e51b815260040161011090610370565b6005546040516001600160a01b03909116904780156108fc02916000818181858888f19350505050158015610187573d6000803e3d6000fd5b6004546001600160a01b0316331461021f5760405162461bcd60e51b815260040161011090610370565b6002546102329063ffffffff83166103d2565b6001546102459063ffffffff85166103d2565b61024f91906103ef565b60005461025c9190610402565b6000555050565b6003546040805163fd26f03760e01b815290516001600160a01b0390921691829163fd26f03791600480830192600092919082900301818387803b1580156102aa57600080fd5b505af11580156102be573d6000803e3d6000fd5b5050505050565b6000602082840312156102d757600080fd5b5035919050565b803563ffffffff811681146102f257600080fd5b919050565b6000806040838503121561030a57600080fd5b610313836102de565b9150610321602084016102de565b90509250929050565b60208082526026908201527f6f6e6c792074686520636c69656e742063616e2063616c6c20746869732066756040820152653731ba34b7b760d11b606082015260800190565b6020808252602c908201527f6f6e6c792074686520736572766572206f776e65722063616e2063616c6c207460408201526b3434b990333ab731ba34b7b760a11b606082015260800190565b634e487b7160e01b600052601160045260246000fd5b80820281158282048414176103e9576103e96103bc565b92915050565b808201808211156103e9576103e96103bc565b818103818111156103e9576103e96103bc56fea26469706673582212201bf196bb2608e5a2df76a5ad311628b51324b3be7a6b36fe6710e0085cc4895564736f6c634300081c0033a2646970667358221220ee14554bfe4f2856c8c4ac626171596ed71d9996a71ca2cd235076aa2fb1736264736f6c634300081c0033",
  "linkReferences": {},
  "deployedLinkReferences": {}
}