{
  "_format": "hh-sol-artifact-1",
  "contractName": "LLMServer",
  "sourceName": "contracts/LLMServer.sol",
  "abi": [
    {
      "inputs": [
        {
          "internalType": "address payable",
          "name": "_serverOwner",
          "type": "address"
        },
        {
          "internalType": "address",
          "name": "_brokerAddress",
          "type": "address"
        },
        {
          "internalType": "uint32",
          "name": "_brokerIndex",
          "type": "uint32"
        }
      ],
      "stateMutability": "nonpayable",
      "type": "constructor"
    },
    {
      "inputs": [
        {
          "internalType": "address",
          "name": "",
          "type": "address"
        }
      ],
      "name": "agreements",
      "outputs": [
        {
          "internalType": "address",
          "name": "",
          "type": "address"
        }
      ],
      "stateMutability": "view",
      "type": "function"
    },
    {
      "inputs": [],
      "name": "costInUSD",
      "outputs": [
        {
          "internalType": "bool",
          "name": "",
          "type": "bool"
        }
      ],
      "stateMutability": "view",
      "type": "function"
    },
    {
      "inputs": [
        {
          "internalType": "uint256",
          "name": "pubKey",
          "type": "uint256"
        }
      ],
      "name": "createAgreement",
      "outputs": [
        {
          "internalType": "address",
          "name": "",
          "type": "address"
        }
      ],
      "stateMutability": "payable",
      "type": "function"
    },
    {
      "inputs": [],
      "name": "currentAgreements",
      "outputs": [
        {
          "internalType": "uint16",
          "name": "",
          "type": "uint16"
        }
      ],
      "stateMutability": "view",
      "type": "function"
    },
    {
      "inputs": [],
      "name": "destroySelf",
      "outputs": [],
      "stateMutability": "nonpayable",
      "type": "function"
    },
    {
      "inputs": [],
      "name": "endAgreement",
      "outputs": [],
      "stateMutability": "nonpayable",
      "type": "function"
    },
    {
      "inputs": [],
      "name": "endpoint",
      "outputs": [
        {
          "internalType": "string",
          "name": "",
          "type": "string"
        }
      ],
      "stateMutability": "view",
      "type": "function"
    },
    {
      "inputs": [
        {
          "internalType": "address",
          "name": "clientAddress",
          "type": "address"
        }
      ],
      "name": "getAgreementContract",
      "outputs": [
        {
          "internalType": "address",
          "name": "",
          "type": "address"
        }
      ],
      "stateMutability": "view",
      "type": "function"
    },
    {
      "inputs": [
        {
          "internalType": "address",
          "name": "clientAddress",
          "type": "address"
        }
      ],
      "name": "getAgreementPubKey",
      "outputs": [
        {
          "internalType": "uint256",
          "name": "",
          "type": "uint256"
        }
      ],
      "stateMutability": "view",
      "type": "function"
    },
    {
      "inputs": [],
      "name": "getInputTokenCost",
      "outputs": [
        {
          "internalType": "uint256",
          "name": "",
          "type": "uint256"
        }
      ],
      "stateMutability": "view",
      "type": "function"
    },
    {
      "inputs": [],
      "name": "getOutputTokenCost",
      "outputs": [
        {
          "internalType": "uint256",
          "name": "",
          "type": "uint256"
        }
      ],
      "stateMutability": "view",
      "type": "function"
    },
    {
      "inputs": [],
      "name": "model",
      "outputs": [
        {
          "internalType": "string",
          "name": "",
          "type": "string"
        }
      ],
      "stateMutability": "view",
      "type": "function"
    },
    {
      "inputs": [
        {
          "internalType": "uint256",
          "name": "_inputTokenCost",
          "type": "uint256"
        },
        {
          "internalType": "uint256",
          "name": "_outputTokenCost",
          "type": "uint256"
        },
        {
          "internalType": "bool",
          "name": "_costInUSD",
          "type": "bool"
        }
      ],
      "name": "setTokenCost",
      "outputs": [],
      "stateMutability": "nonpayable",
      "type": "function"
    },
    {
      "inputs": [
        {
          "internalType": "uint16",
          "name": "_maxConcurrentAgreements",
          "type": "uint16"
        }
      ],
      "name": "setmaxConcurrentAgreements",
      "outputs": [],
      "stateMutability": "nonpayable",
      "type": "function"
    },
    {
      "inputs": [
        {
          "internalType": "string",
          "name": "_endpoint",
          "type": "string"
        },
        {
          "internalType": "string",
          "name": "_model",
          "type": "string"
        },
        {
          "internalType": "uint256",
          "name": "_inputTokenCost",
          "type": "uint256"
        },
        {
          "internalType": "uint256",
          "name": "_outputTokenCost",
          "type": "uint256"
        },
        {
          "internalType": "bool",
          "name": "_costInUSD",
          "type": "bool"
        }
      ],
      "name": "setupModel",
      "outputs": [],
      "stateMutability": "nonpayable",
      "type": "function"
    },
    {
      "inputs": [
        {
          "internalType": "uint32",
          "name": "newIndex",
          "type": "uint32"
        }
      ],
      "name": "updateIndex",
      "outputs": [],
      "stateMutability": "nonpayable",
      "type": "function"
    }
  ],
  "bytecode": "0x608060405234801561001057600080fd5b506040516119dc3803806119dc83398101604081905261002f91610234565b600080546001600160a01b038481166001600160c01b031990921691909117600160a01b63ffffffff85160217909155600680549185166001600160b01b031990921691909117600560a01b1790556100866100de565b600880546001600160a01b0392909216620100000262010000600160b01b03199092169190911790556040805160208101909152665193148bd554d160c21b81526100d59060099060016101a7565b505050506102ae565b600073ad67fe66660fb8dfe9d6b1b4240d8650e30f60196001600160a01b031663159354a260405160200161012d90602080825260069082015265233a39b7ab1960d11b604082015260600190565b604051602081830303815290604052805190602001206040518263ffffffff1660e01b815260040161016191815260200190565b602060405180830381865afa15801561017e573d6000803e3d6000fd5b505050506040513d601f19601f820116820180604052508101906101a2919061028a565b905090565b8280548282559060005260206000209081019282156101f7579160200282015b828111156101f757825182546001600160a81b03191660589190911c1782556020909201916001909101906101c7565b50610203929150610207565b5090565b5b808211156102035760008155600101610208565b6001600160a01b038116811461023157600080fd5b50565b60008060006060848603121561024957600080fd5b83516102548161021c565b60208501519093506102658161021c565b604085015190925063ffffffff8116811461027f57600080fd5b809150509250925092565b60006020828403121561029c57600080fd5b81516102a78161021c565b9392505050565b61171f806102bd6000396000f3fe6080604052600436106100f35760003560e01c80636b8462be1161008a578063c76171d111610059578063c76171d1146102a0578063ed97b082146102d9578063f37e0b6e146102f9578063fd26f0371461031957600080fd5b80636b8462be1461021d578063b742783314610232578063c2f8b7e914610252578063c42f9fce1461027257600080fd5b806331dcd8b7116100c657806331dcd8b7146101885780633ce2aa99146101a85780634e22410a146101de5780635e280f111461020857600080fd5b80630ad9d052146100f857806310f7d7d6146101235780631cf205bd1461014e5780631e2186ae14610171575b600080fd5b34801561010457600080fd5b5061010d61032e565b60405161011a9190610a79565b60405180910390f35b610136610131366004610ac7565b6103bc565b6040516001600160a01b03909116815260200161011a565b34801561015a57600080fd5b50610163610526565b60405190815260200161011a565b34801561017d57600080fd5b5061018661054b565b005b34801561019457600080fd5b506101866101a3366004610af5565b6105e3565b3480156101b457600080fd5b506101366101c3366004610b2a565b6007602052600090815260409020546001600160a01b031681565b3480156101ea57600080fd5b506004546101f89060ff1681565b604051901515815260200161011a565b34801561021457600080fd5b5061010d6106c2565b34801561022957600080fd5b506101636106cf565b34801561023e57600080fd5b5061018661024d366004610b5a565b6106ef565b34801561025e57600080fd5b5061016361026d366004610b2a565b61073b565b34801561027e57600080fd5b5060085461028d9061ffff1681565b60405161ffff909116815260200161011a565b3480156102ac57600080fd5b506101366102bb366004610b2a565b6001600160a01b039081166000908152600760205260409020541690565b3480156102e557600080fd5b506101866102f4366004610bc7565b6107bc565b34801561030557600080fd5b50610186610314366004610c5f565b6108ab565b34801561032557600080fd5b5061018661093d565b6001805461033b90610c85565b80601f016020809104026020016040519081016040528092919081815260200182805461036790610c85565b80156103b45780601f10610389576101008083540402835291602001916103b4565b820191906000526020600020905b81548152906001019060200180831161039757829003601f168201915b505050505081565b60065460085460009161ffff600160a01b90910481169116111561043d5760405162461bcd60e51b815260206004820152602d60248201527f54686973207365727665722068617320697473206d6178696d756d206e756d6260448201526c6572206f6620636c69656e747360981b60648201526084015b60405180910390fd5b600034346104496106cf565b610451610526565b6006546040516001600160a01b03909116903390899061047090610a6c565b958652602086019490945260408501929092526001600160a01b03908116606085015216608083015260a082015260c0016040518091039082f09050801580156104be573d6000803e3d6000fd5b5033600090815260076020526040812080546001600160a01b0319166001600160a01b0384161790556008805492935060019290919061050390849061ffff16610cd5565b92506101000a81548161ffff021916908361ffff16021790555080915050919050565b60045460009060ff16156105445761053f60035461098d565b905090565b5060035490565b6006546001600160a01b031633146105755760405162461bcd60e51b815260040161043490610cef565b6000546040516364ce8ecb60e01b8152600160a01b820463ffffffff1660048201526001600160a01b039091169081906364ce8ecb90602401600060405180830381600087803b1580156105c857600080fd5b505af11580156105dc573d6000803e3d6000fd5b5050505050565b6006546001600160a01b0316331461060d5760405162461bcd60e51b815260040161043490610cef565b600283905560038290556004805460ff19168215151790556000546001600160a01b0381169081906377fee17590600160a01b900463ffffffff166106506106cf565b610658610526565b6040516001600160e01b031960e086901b16815263ffffffff93909316600484015260248301919091526044820152606401600060405180830381600087803b1580156106a457600080fd5b505af11580156106b8573d6000803e3d6000fd5b5050505050505050565b6005805461033b90610c85565b60045460009060ff16156106e85761053f60025461098d565b5060025490565b6006546001600160a01b031633146107195760405162461bcd60e51b815260040161043490610cef565b6006805461ffff909216600160a01b0261ffff60a01b19909216919091179055565b6001600160a01b03808216600090815260076020908152604080832054815163191fc19d60e01b815291519394169263191fc19d926004808401939192918290030181865afa158015610792573d6000803e3d6000fd5b505050506040513d601f19601f820116820180604052508101906107b69190610d3b565b92915050565b6006546001600160a01b031633146107e65760405162461bcd60e51b815260040161043490610cef565b60016107f3858783610db6565b5060028390556003829055600561080b878983610db6565b506004805460ff19168215151790556000546001600160a01b03811690819063c0bd3b4a90600160a01b900463ffffffff1688886108476106cf565b61084f610526565b6040518663ffffffff1660e01b815260040161086f959493929190610e76565b600060405180830381600087803b15801561088957600080fd5b505af115801561089d573d6000803e3d6000fd5b505050505050505050505050565b6000546001600160a01b031633146109175760405162461bcd60e51b815260206004820152602960248201527f6f6e6c79207468652062726f6b65726167652063616e2063616c6c207468697360448201526810333ab731ba34b7b760b91b6064820152608401610434565b6000805463ffffffff909216600160a01b0263ffffffff60a01b19909216919091179055565b33600090815260076020526040812080546001600160a01b0319169055600880546001929061097190849061ffff16610ec3565b92506101000a81548161ffff021916908361ffff160217905550565b600854604051634c37574560e01b8152600091829182916201000090046001600160a01b031690634c375745906109c990600990600401610edd565b600060405180830381865afa1580156109e6573d6000803e3d6000fd5b505050506040513d6000823e601f3d908101601f19168201604052610a0e919081019061101d565b509150915080600081518110610a2657610a266110e8565b6020026020010151600a1860ff1682600081518110610a4757610a476110e8565b602002602001015185610a5a91906110fe565b610a649190611115565b949350505050565b6105b28061113883390190565b602081526000825180602084015260005b81811015610aa75760208186018101516040868401015201610a8a565b506000604082850101526040601f19601f83011684010191505092915050565b600060208284031215610ad957600080fd5b5035919050565b80358015158114610af057600080fd5b919050565b600080600060608486031215610b0a57600080fd5b8335925060208401359150610b2160408501610ae0565b90509250925092565b600060208284031215610b3c57600080fd5b81356001600160a01b0381168114610b5357600080fd5b9392505050565b600060208284031215610b6c57600080fd5b813561ffff81168114610b5357600080fd5b60008083601f840112610b9057600080fd5b50813567ffffffffffffffff811115610ba857600080fd5b602083019150836020828501011115610bc057600080fd5b9250929050565b600080600080600080600060a0888a031215610be257600080fd5b873567ffffffffffffffff811115610bf957600080fd5b610c058a828b01610b7e565b909850965050602088013567ffffffffffffffff811115610c2557600080fd5b610c318a828b01610b7e565b9096509450506040880135925060608801359150610c5160808901610ae0565b905092959891949750929550565b600060208284031215610c7157600080fd5b813563ffffffff81168114610b5357600080fd5b600181811c90821680610c9957607f821691505b602082108103610cb957634e487b7160e01b600052602260045260246000fd5b50919050565b634e487b7160e01b600052601160045260246000fd5b61ffff81811683821601908111156107b6576107b6610cbf565b6020808252602c908201527f6f6e6c792074686520736572766572206f776e65722063616e2063616c6c207460408201526b3434b990333ab731ba34b7b760a11b606082015260800190565b600060208284031215610d4d57600080fd5b5051919050565b634e487b7160e01b600052604160045260246000fd5b601f821115610db157806000526020600020601f840160051c81016020851015610d915750805b601f840160051c820191505b818110156105dc5760008155600101610d9d565b505050565b67ffffffffffffffff831115610dce57610dce610d54565b610de283610ddc8354610c85565b83610d6a565b6000601f841160018114610e165760008515610dfe5750838201355b600019600387901b1c1916600186901b1783556105dc565b600083815260209020601f19861690835b82811015610e475786850135825560209485019460019092019101610e27565b5086821015610e645760001960f88860031b161c19848701351681555b505060018560011b0183555050505050565b63ffffffff8616815260806020820152836080820152838560a0830137600060a08583010152600060a0601f19601f87011683010190508360408301528260608301529695505050505050565b61ffff82811682821603908111156107b6576107b6610cbf565b602080825282548282018190526000848152918220906040840190835b81811015610f2957835460581b6affffffffffffffffffffff1916835260019384019360209093019201610efa565b509095945050505050565b604051601f8201601f1916810167ffffffffffffffff81118282101715610f5d57610f5d610d54565b604052919050565b600067ffffffffffffffff821115610f7f57610f7f610d54565b5060051b60200190565b600082601f830112610f9a57600080fd5b8151610fad610fa882610f65565b610f34565b8082825260208201915060208360051b860101925085831115610fcf57600080fd5b602085015b83811015610ffb5780518060000b8114610fed57600080fd5b835260209283019201610fd4565b5095945050505050565b805167ffffffffffffffff81168114610af057600080fd5b60008060006060848603121561103257600080fd5b835167ffffffffffffffff81111561104957600080fd5b8401601f8101861361105a57600080fd5b8051611068610fa882610f65565b8082825260208201915060208360051b85010192508883111561108a57600080fd5b6020840193505b828410156110ac578351825260209384019390910190611091565b80965050505050602084015167ffffffffffffffff8111156110cd57600080fd5b6110d986828701610f89565b925050610b2160408501611005565b634e487b7160e01b600052603260045260246000fd5b80820281158282048414176107b6576107b6610cbf565b60008261113257634e487b7160e01b600052601260045260246000fd5b50049056fe60806040526040516105b23803806105b28339810160408190526100229161008f565b60009590955560019390935560029190915560038054336001600160a01b0319918216179091556004805482166001600160a01b0393841617905560058054909116919092161790556006556100ee565b80516001600160a01b038116811461008a57600080fd5b919050565b60008060008060008060c087890312156100a857600080fd5b865160208801516040890151919750955093506100c760608801610073565b92506100d560808801610073565b9150600060a08801519050809150509295509295509295565b6104b5806100fd6000396000f3fe608060405234801561001057600080fd5b506004361061007d5760003560e01c8063590e1ae31161005b578063590e1ae3146100b0578063d4300b18146100b8578063da25de3c146100cb578063db420fe3146100d457600080fd5b8063191fc19d146100825780633604d8af1461009e5780633a40f3b2146100a8575b600080fd5b61008b60065481565b6040519081526020015b60405180910390f35b6100a66100ff565b005b6100a6610177565b6100a6610215565b6100a66100c6366004610361565b610278565b61008b60005481565b6003546100e7906001600160a01b031681565b6040516001600160a01b039091168152602001610095565b6005546001600160a01b031633146101325760405162461bcd60e51b815260040161012990610394565b60405180910390fd5b600554600080546040516001600160a01b039093169281156108fc0292818181858888f1935050505015801561016c573d6000803e3d6000fd5b506101756102e6565b565b6005546001600160a01b031633146101a15760405162461bcd60e51b815260040161012990610394565b600554600080546040516001600160a01b039093169281156108fc0292818181858888f193505050501580156101db573d6000803e3d6000fd5b506004546040516001600160a01b03909116904780156108fc02916000818181858888f1935050505015801561016c573d6000803e3d6000fd5b6005546001600160a01b0316331461023f5760405162461bcd60e51b8152600401610129906103da565b6005546040516001600160a01b03909116904780156108fc02916000818181858888f1935050505015801561016c573d6000803e3d6000fd5b6004546001600160a01b031633146102a25760405162461bcd60e51b8152600401610129906103da565b6002546102b59063ffffffff831661043c565b6001546102c89063ffffffff851661043c565b6102d29190610459565b6000546102df919061046c565b6000555050565b6003546040805163fd26f03760e01b815290516001600160a01b0390921691829163fd26f03791600480830192600092919082900301818387803b15801561032d57600080fd5b505af1158015610341573d6000803e3d6000fd5b5050505050565b803563ffffffff8116811461035c57600080fd5b919050565b6000806040838503121561037457600080fd5b61037d83610348565b915061038b60208401610348565b90509250929050565b60208082526026908201527f6f6e6c792074686520636c69656e742063616e2063616c6c20746869732066756040820152653731ba34b7b760d11b606082015260800190565b6020808252602c908201527f6f6e6c792074686520736572766572206f776e65722063616e2063616c6c207460408201526b3434b990333ab731ba34b7b760a11b606082015260800190565b634e487b7160e01b600052601160045260246000fd5b808202811582820484141761045357610453610426565b92915050565b8082018082111561045357610453610426565b818103818111156104535761045361042656fea2646970667358221220cf6148bc844890837ef54808e4503e8701e29374a042d7fa58157cb20acbd29e64736f6c634300081c0033a2646970667358221220f09843225a2db11fef384871d4817192dca20028f0e622309ece6c9d92be587f64736f6c634300081c0033",
  "linkReferences": {},
  "deployedLinkReferences": {}
}